:020000040000fa
:080000000001040000000000f3
:020000040000fa
:100200000f9820000eff20000e0188000000000063
:100210000c0007006085210001002000110007008c
:10022000000020000000e000020032000000020098
:10023000000000004a0f0200000000000040da0049
:100240000000fe004440a900c00020000000e000c3
:100250000300320000002000a00188004440a800f4
:100260000000060091018800800078000000eb008b
:1002700015003700e280400032a0b4009101ba00be
:10028000e280400032a0b4009102ba00e280400057
:1002900032a0b4000002eb00472bde00f507b200ed
:1002a000602ce10004003a000059eb008301e900f2
:1002b000fdff3e00040037006128e100010032002c
:1002c0000082eb00040007001101ba000200e00008
:1002d000e8ff3a00000006003159ba008301e90046
:1002e0000c0032002159ba008301e90008003200f5
:1002f0000400e00003003a00e280400032a0b400b5
:10030000f5ff370011d9ba008301e900faff3a007e
:100310008100e800e180400032a0b4000000060047
:1003200000000000000000000000000000000000cd
:100330000040da000000fe0003f0a200889fbe002b
:100340008a9fbe008c1f78001c0107002301330028
:100350006450e1004f0032006420e100520032009e
:1003600003826c0007003b000905d0000306d000a3
:10037000820f54000c065d000200390002003200ba
:1003800089017800030678008582550004003d004d
:100390000003fd008103fd008502ea008b85420019
:1003a000840f720002003b0060001000e080180023
:1003b0006011b8000005eb007a28e1000a0039005e
:1003c00006007800c75ddd00f707b2008780750082
:1003d0002d003700828171000a01780061056000fc
:1003e0008180d1000080d3008502e900f9ff3b0045
:1003f000060440008784480002003b0060041400ab
:10040000e0841c000988a300070032008a81710083
:1004100082817100610164008904d1000884d300e5
:100420008b05e800170037000978a30013003a0095
:100430000b00e000130034008b05e90008044400c1
:1004400089844c000a4474000978a3000d003a0026
:100450000b00e000070034008b05e90008044400ad
:1004600089844c0001003a000b0020000978a300a9
:10047000f7ff32000001eb000200370082817100bb
:100480000a017800920007000cf0a70001f0a0001c
:10049000db0037006420e10002003a00838f6c002b
:1004a000db0033000801be000200be00d4003700ac
:1004b000889fbe008a9fbe008c1f7800bf00070087
:1004c000c600330003866c006450e1002e00320049
:1004d0006420e100330032006150e1002f0032005f
:1004e0006120e1003100320085855500eb07b00046
:1004f000090020000804200005003700080444001b
:1005000089844c000a0031000603430087834b00b6
:100510000001530081815b00f8ff33000203be003d
:100520000800a0000804440089844c00f6ff39004c
:10053000c639dd0083017300010032001300200082
:100540008904d1000884d3000998a3000500320073
:100550000800a7000300a0008904d1000884d3008c
:100560008b05e8008904d1000884d3000001eb006a
:100570000281d2005600070001f0a1000cf0a70094
:1005800001f0a0009e0037006420e100a0003200ce
:100590000801be000200be00f7ff37006120e10045
:1005a0009b0032006000b800f3ff3700000020001d
:1005b00001f82700f0ff37000001be006a000700c5
:1005c0000470a70003f0a10003f8a30013003a0091
:1005d0006509b10010003200090035006928e1000a
:1005e0000200350001002800000005000000400066
:1005f000818048008502e900fcff3a000000060007
:10060000f88f4200050035008100d1000080d30042
:100610008502e800fcff3a00000006008000eb00c5
:1006200000000500889fbe008a9fbe00010578007b
:100630000100e0000400350008003c000000e0007c
:10064000200032000500370060001000e080180034
:1006500002003b0001f02c001a0037000004be002d
:100660006011b8006b0920000982cf000200390038
:100670000882cf000441b000694252000e003200ef
:1006800008003b0082817100610164008904d1008f
:100690000884d3008b05e8000442e800f9ff3a0023
:1006a000050037000804440089844c008b05e900ec
:1006b0000442e900fbff3a00050007000af0a7002a
:1006c00001f0a0004f05be004f04be000000060070
:1006d00081002000618055000b003d000b002000d0
:1006e00061fe2f000100e1001d00340082817100d5
:1006f000610164008904d1000884d3000000e8008f
:10070000faff3a00710020006100640003007000ed
:10071000020060000900320061044400e0844c00e3
:100720000988a500050032008b05e8006808e10093
:1007300002003a008904d1000884d300f20f20009f
:100740000258e10005003d00c75ddd00f907b20079
:100750008980750008007800000006000bf827006b
:100760008b00780000000500c70ade00f107b20028
:10077000f50fb20008003200e1cf42000200320063
:100780000170a00024000500810f700001003200fc
:100790000408050044000500810f700002003a00c3
:1007a000140005008502e9000000400081c04800f7
:1007b000fcff3b000170a000240005000004be0007
:1007c000e9ff07000003be000405be000200be00f2
:1007d000e5ff0700844f7500000006000200be0020
:1007e0006450e100050036006420e100020036009c
:1007f0000968a30001003a000800be000160a000e3
:100800004f0678004f05be004f04be0000000600f2
:10081000f0ff2f00f1ff2700f9ff3700889fbe008f
:100820008a9fbe008c1f7800e4ff0700ebff3300b7
:1008300003866c006450e100240032006420e10073
:10084000270032006150e100220032006120e10007
:10085000210032008b854200eb07b1000134b80063
:10086000003ab8000804420089844a00013ab800fe
:100870000030b8008880400009014a0004003300bd
:100880000000400081804800020149008b05e9001a
:10089000c909dd008301700001003200130020004f
:1008a000c814de004814dd004709de001200b20063
:1008b000c808de000884700085ff070001f0a10071
:1008c0000cf0a70001f0a000cdff37006120e1008f
:1008d000cfff32000801be000200be00f7ff370064
:1008e0006150e100fcff3a00c9ff37000c00fa003c
:1008f000889fbe008a9fbe008c9fbe00afff07008e
:100900000206be00840578000200be00020020003e
:100910004801070005003a008b02b30012002000d6
:100920004401070001003a00f8856d000c01be008b
:10093000c60007000800be009b0032000b08a300a1
:100940009e003a000df0a7000be0a00009f0a70000
:100950000bf0a00009f0a1000801be00bb000700d9
:100960000bf0a6009500320001003c000bd0a00067
:100970008acf7500b20033006000b8006250e10019
:1009800099003900a1003e000b28a300a2003a0004
:100990000bf8a300060032000b58a300a70032009a
:1009a0000801be00a90007000800be009400320044
:1009b0000800be00b00007000004be000505780076
:1009c0000bf0a7000b30a6000bf0a1005b0798000e
:1009d000324f200053f323003d01070005003d0086
:1009e0000800be00120020005e0107000004be00e7
:1009f0000a05e9004a0798006150b90009ff07009d
:100a0000008fbe000c01be0084ff07003401070008
:100a1000300798000100e00002003d006000100077
:100a2000e0801800f2ff2700820f5000e08f58008e
:100a300064003e000c00be0029010700200798005a
:100a4000f2072000820f5000e08f580005003c00a4
:100a500012f82f00f3ff2f00820f5000838f5800f1
:100a600009003d000a00e0000300320001003c00e4
:100a70000201ea00020578006000b8002007980033
:100a80003a079800190037003e0090006100b90055
:100a9000e4fe0700809fbe000c00be004109dd009f
:100aa0004811de007208b100e20007000005be0038
:100ab0001e01be0059ff07004f01be001efe0700c9
:100ac000809fbe000c00be000a01be001afe070097
:100ad0001e01be0051ff07004f01be0017fe0700b8
:100ae0008221270013f323004cff07000005be00fe
:100af0002e0090006100b900cafe070001f0a200bc
:100b00000c01be000dfe07000006be000800be007e
:100b1000360107000c01be0040ff07000a01be00bd
:100b200006fe0700809fbe004a0007002e059000c9
:100b30000af0a7000a05ea00050037000800be0019
:100b40000801be0035ff07000004be000c00be0017
:100b50000801be000a00a70030ff07000006be0023
:100b60000a05d100f5ff3a005e01900002e0a60000
:100b7000030037000001be00360007004cfe0700ee
:100b80000004be004f00be00480007000801be0080
:100b900022ff07003e019000f2000700de059000f2
:100ba0000bf0a70001f0a2004f06be004f05be00eb
:100bb0004f04be000080fa00000006002500070078
:100bc000f9ff3700270007006000b8000bd0a7002e
:100bd0000bc0a0000be0a7000bc0a2000bc0a70039
:100be00001f82700f0ff37000df8a30002003200e3
:100bf0001e000700190007000bf8a300eaff3200ef
:100c00000b30a70001f0a200e7ff37000df8a300aa
:100c1000f9ff3a00f7ff37000801be000b0007009c
:100c2000e6ff320001003c000df0a2006000b800b9
:100c30000df0a70009000700dbff37000b000700dd
:100c4000f1ff2700f0ff2f00d7ff3700010007005a
:100c50009f00370001f823000000050001f827007d
:100c600000000500200220000100370010022000d3
:100c7000f04b8800000006000003be00bafe07002b
:100c80006220e100020032000600be0005000500ff
:100c9000e507b100f107b20004f023008480700082
:100ca00007f0a70001f0a00024000500889fbe0007
:100cb0008a9fbe008c9fbe000004be00aafe0700f3
:100cc0000800be006420e10048003e0055003200ec
:100cd00072212700132b24007f00070047003c00ef
:100ce0000800be00c2ec2800e32c2c0078000700ae
:100cf000470035000800be0001f0a10002002000fe
:100d00000338230072000700430035000800be00ce
:100d1000b2a32a0083fb2300c0fe070002002000cc
:100d200003f0230001f0a70003f0a00083fd0700fb
:100d30006b0007000005be003afe070001f0a200ac
:100d40000006be000200280013f32300b3fe0700d4
:100d50000801be0079fd0700809fbe000c00be00a8
:100d600032082800e3952b00acfe07004f01be00bf
:100d700072fd07000006be000001be00a7fe0700ce
:100d8000809fbe004241250083b82300a3fe0700d8
:100d90000200200003e8230068fd07000c01be00ec
:100da0009efe07000006be004f00be00f2f92b00b9
:100db000c3d4230099fe07000200200003f02300a3
:100dc0005efd07000c01be005bfd07000001be00d8
:100dd0000c00be00b6fd07000200200003f0230057
:100de00056fd0700610145005e0007004f06be008a
:100df0004f05be004f04be000000060001f82700aa
:100e00000000200022022000f24b8800f7ff37008c
:100e10006000b800fbff370001f82300000020004d
:100e2000f2ff370009f8a300f0ff32006000b800bd
:100e3000eeff3700889fbe008a9fbe000003be0001
:100e400049fe0700850578008281520002002000db
:100e50006220e10004003a00f307b100040035000d
:100e60007718e100040035000600be0014003700ca
:100e70006000b8000f003700f50f2000faff2f00c8
:100e80008502d1000a85d3008301e900fcff3b0005
:100e90008184620000046500890f7400f2ff320053
:100ea0008582ea000a85ea00818462000004650008
:100eb00007fe070007f0a70001f0a0000081eb008b
:100ec0000200e0004f05be004f04be000000060017
:100ed000140020009c003700f4ff2f009a00370018
:100ee0000001be0020fe07000470a70003f0a1006f
:100ef0006509b100160032000d0035006828e100d8
:100f000006003500f0ff2f00f1ff27000300e0008e
:100f100013003b0001002800000005000000400015
:100f2000818048008502e900fcff3a000800370094
:100f3000f88f420002003c008000eb00000005003a
:100f40008100d1000080d3008502e800fcff3a0058
:100f50000300e00002003b0060001000e080180089
:100f6000000006000003be00fffd07006220e10054
:100f7000020032000600be000000060085024100ab
:100f8000e30f20000328e10005003c00a3fe2f0032
:100f90000328e10007003d000500200001003700a4
:100fa000f50f200020022000f04b88006000b80000
:100fb00008003700130020008381520005003d0027
:100fc0008100d1000080d3008301e800fcff3a00db
:100fd00005002000c72add00f107b20085807000ff
:100fe00007f0a70001f0a00000000600889fbe00e7
:100ff0008a9fbe008c9fbe001fff070085047800fb
:101000000005be006420e10049003e006220e100ce
:1010100003003200090035000bf8a3004400320041
:101020000bf8a3000800320010022000f04b8800eb
:10103000f0ff2f00f1ff27003d00370001f82f00df
:10104000000020003a0037003d000700bafc07000e
:101050000006be000a00be00324f200053f32300fa
:101060009dff0700060034000c00be00340007009e
:10107000b1fc07000006be000a00be0002003700f7
:101080008904e9000c00be002d000700e3fd070005
:101090002b000700a9fc07000001be000c00be00e9
:1010a00003fd07000005be000001be00dbfd0700d8
:1010b0000006be00a2f32300430d2c009ffc070096
:1010c000809fbe000c00be00d2e32700d3f02b00af
:1010d000d2fd07004f01be00f5fc07000006be0070
:1010e0000a01be00cdfd07000a01be0093fc070007
:1010f0000006be006148b9004afd07000005be00b9
:1011000032082800e3952b00c4fd07000c01be0047
:101110008afc07000006be000a00be00020028008c
:1011200013f32300bdfd07000c01be0083fc070084
:101130004f06be004f05be004f04be000000060073
:1011400003f0230002000500889fbe008a9fbe00b6
:10115000841f780099fd07004f00780011003300cc
:10116000f0ff2f00838f6c0006003b000405650034
:101170000a00a7000800370009f0a60010002000b0
:1011800008003700820f5400838f5c000300390091
:101190001000200001003e000000200009f0a70020
:1011a0000000ea004f05be004f04be000000e00052
:0411b0000000060035
:020000040000fa
:100008009801000098010000980100009801000084
:100018009801000098010000980100009801000074
:1000280098010000401000009801000098010000ad
:1000380094100000980100009801000016100000bc
:100048009801000098010000980100009801000044
:100058009801000098010000980100009801000034
:100068009801000098010000980100009801000024
:100078009801000098010000980100009801000014
:10008800e60f0000980100009801000098010000a8
:1000980098010000980100009801000098010000f4
:1000a80098010000980100009801000098010000e4
:1000b80098010000980100009801000098010000d4
:1000c80098010000980100009801000098010000c4
:1000d80098010000980100009801000098010000b4
:1000e80098010000980100009801000098010000a4
:0800f8009801000098010000ce
:020000040000fa
:100108009801000098010000980100009801000083
:100118009801000098010000980100009801000073
:1001280098010000401000009801000098010000ac
:1001380094100000980100009801000016100000bb
:100148009801000098010000980100009801000043
:100158009801000098010000980100009801000033
:100168009801000098010000980100009801000023
:100178009801000098010000980100009801000013
:10018800e60f0000980100009801000098010000a7
:1001980098010000980100009801000098010000f3
:1001a80098010000980100009801000098010000e3
:1001b80098010000980100009801000098010000d3
:1001c80098010000980100009801000098010000c3
:1001d80098010000980100009801000098010000b3
:1001e80098010000980100009801000098010000a3
:0801f8009801000098010000cd
:020000040000fa
:1011b4003f0c00005b5e00006c760000771c0000b2
:0811c4007f7e0000c0c00000a6
:020000040000fa
:1011cc000e00fa00000f7800110798002207980013
:1011dc0033079800044f9800154f98005607980055
:1011ec00670798001e0078009e0090001100980080
:1011fc009e00780010c0b300804878009e007800f4
:10120c000040eb00c04098009e0078000040eb00ce
:10121c00d04098009e0078000040eb008050980071
:10122c009e0078000040eb00905098009e007800e3
:10123c000040eb00e04098001e007800ae009000eb
:10124c00410098001e007800be00900061009800dc
:10125c001e0078008e489000214898001e007800ef
:10126c009e489000314898001e007800beb8970048
:10127c00710098001e00780010009000de009000b5
:10128c00110098001e0078001000900068004000cb
:10129c00ee009000110098001e0078009000900065
:1012ac000040eb00c04098001e0078001000900039
:1012bc00e80040000040eb00c04098001e007800a1
:1012cc00900090000ef89700804878001e0078007f
:1012dc0010009000e80040000ef89700804878005d
:1012ec000080fa00000006000400fa00000f7800ed
:1012fc001e007800005090000080fb001007980042
:10130c001e009000e30f5000230032001e009000de
:10131c00e30f50000a003c001e009000e10f50004b
:10132c00170032001e009000e10f500017003c0027
:10133c001e0090000000e0000e0032002400370078
:10134c001e009000e50f50001c0032001e009000a3
:10135c00e50f5000160035001e009000e60f5000ff
:10136c00190032001e009000e70f50000d003200f3
:10137c00170037001e007800170007001400370014
:10138c001e00780032000700110037001e007800a4
:10139c00830007000e0037001e007800b200070023
:1013ac000b0037001e0078006c01070008003700a6
:1013bc001e0078000b020700050037001e007800a5
:1013cc0009010700020037001e00780053010700d6
:1013dc000080fa00000006000200fa00000f7800fe
:1013ec001e007800a04890001e007800400090007d
:1013fc00729620005a05070050c1b3001007070071
:10140c009e00780010c0b300804878009e007800e1
:10141c0010c0b300805098001e007800604090000f
:10142c00804078000144a0001e00780061409800c4
:10143c001e00780060409000804078000124a000dd
:10144c001e007800614098000080fa000000060041
:10145c000400fa00100798001e0090007000900025
:10146c00104078000004e00023003a001e009000b9
:10147c00a04890001e009000400090004605070018
:10148c000004e0004400320050c1b300ec06070039
:10149c001e009000a04890001e009000400090009c
:1014ac00729620002e0507001e00900060409000f0
:1014bc000080fb004400de00610060000000e000e2
:1014cc0035003a001e009000105090008040e8005b
:1014dc001e009000115098001e00900010509000bb
:1014ec00ea4f50002c003a009e00900060c0b30000
:1014fc0080509800280037001e009000700090006b
:10150c0035060700004f78001e009000e040900068
:10151c00f0ceb30080c060001e00900061409800c7
:10152c0010c0b3009e4f10000d003a001e0090003a
:10153c00b04890001e00900040009000020f200068
:10154c00070507009e00900020c0b3008050980053
:10155c009e0090000040eb00905098000e00370069
:10156c0040c0b3009e4f10000b003a0060c0b300a7
:10157c00b30607009e0090000040eb0080509800de
:10158c001e009000e040900000c8b30080c07000c6
:10159c001e009000614098000080fa0000000600d8
:1015ac000400fa00100798001e00900090009000b4
:1015bc001e009000404090000080fb004300dd00c6
:1015cc00008f40001e0090007000900010407800ca
:1015dc000004e00013003a001e009000b048900098
:1015ec001e00900040009000eb0407000004e00097
:1015fc001b00320050c1b300910607001e00900082
:10160c00a04890001e0090004000900072962000b0
:10161c00d30407009e00900010c0b30080509800c7
:10162c000f0037001e00900070009000ea050700c4
:10163c00804078001e007800514098001e009000f9
:10164c00b04890001e00900040009000020f200057
:10165c00c30407009e00900030c0b3008050980077
:10166c000080fa00000006000600fa00200798002f
:10167c002e009000900090002e00900040409000b2
:10168c000080fb004300dd00008f40002e00900026
:10169c0070009000104078000004e00013003a0045
:1016ac002e009000b04890002e009000400090005a
:1016bc00b90407000004e0004900320050c1b30037
:1016cc005f0607002e009000a04890002e009000ae
:1016dc004000900072962000a1040700ae0090001c
:1016ec0010c0b300805098003d0037002e009000d1
:1016fc0070009000b8050700204798001e00780085
:10170c00504090000081fb002e4090008080fb0038
:10171c00f00f200001005000800f51002a003a0009
:10172c001e007800d04090002e00900010407800f1
:10173c0080cf500010003a002e009000b04890006e
:10174c002e00900040009000020f2000840407003f
:10175c00ae00900050c0b300805098009e007800fe
:10176c000040eb00f04098009e0078000040eb0039
:10177c00e04098001a0037001e007800d04090001e
:10178c002e0090001040780080cf50000a003100ed
:10179c00ae00900040c0b300805098001e0078004e
:1017ac0040409000804078000104a0001e007800aa
:1017bc00414098000a003700ae00900060c0b300b2
:1017cc008050980006003700ae00900040c0b30077
:1017dc00805098009e00780020c0b300c040980054
:1017ec000080fa00000006000600fa0020079800ae
:1017fc002e00900070009000104078000004e00073
:10180c0013003a002e009000b04890002e0090007b
:10181c0040009000600407000004e0003d0032002e
:10182c0050c1b300060607002e009000a04890009f
:10183c002e00900040009000729620004804070093
:10184c00ae00900010c0b3008050980031003700fb
:10185c002e009000b04890002e00900040009000a8
:10186c00020f20003e0407002e0090009000900014
:10187c002e009000404090000080fb004300dd00f3
:10188c0000804000100798002e009000700090001f
:10189c0051050700004f78001e009000604090003a
:1018ac001e404000804078001e009000614098006f
:1018bc001e009000900090001e0090007040900060
:1018cc000080fb00808040001e407800804878003b
:1018dc001e009000704090008040e8001e009000b8
:1018ec00714098001e009000f04090001e00900087
:1018fc001040780080cf5000060039009e00900008
:10190c000040eb00f0409800ae00900070c0b300b7
:10191c00805098000080fa00000006000200fa00d7
:10192c00000f78001e007800604090008040780026
:10193c000134a0001e007800614098001e00780061
:10194c00e040900000c4b30080c070001e0078001e
:10195c00614098000080fa00000006000a00fa00be
:10196c00400798004e0090007000900010407800e6
:10197c000004e0001a003a004e0090006040900015
:10198c000080fb004500de00610060000000e0000c
:10199c0013003a004e009000b04890004e009000aa
:1019ac0040009000fc0307000004e0008b003200b4
:1019bc0050c1b300a20507004e009000a048900053
:1019cc004e0090004000900072962000e403070047
:1019dc00ce00900010c0b300805098007f003700fc
:1019ec004e00900070009000104078000004e00061
:1019fc002e003a004e009000604090000080fb00ea
:101a0c004500de00610060000004e00027003200a9
:101a1c000000eb0010079800200037004e009000eb
:101a2c00900090001e0090004300dd00008f4000ed
:101a3c001e007800404090000080fb004200de0059
:101a4c00610060000000e00011003a004e009000c0
:101a5c00e0409000f0cdb30080c060004e009000dc
:101a6c006140980060c0b300750507004e009000ff
:101a7c00a04890004e00900040009000729620000c
:101a8c00b7030700ce00900010c0b3008050980040
:101a9c001e0090000000e800100798001e00900047
:101aac00e10f5000ddff34004c0037004e00900079
:101abc00900090004e009000404090000080fb0091
:101acc004300dd0000804000300798004e0090007d
:101adc0070009000c0040700404798003e00900042
:101aec00e04090004e40900080cf50002a003a0019
:101afc003e00900040409000804078000124a000ff
:101b0c003e009000414098004e009000e040900054
:101b1c0000c4b30080c070004e009000614098007b
:101b2c004e009000e040900000c2b30080c07000f6
:101b3c004e009000614098004e009000e0409000f4
:101b4c00b0cfb30080c060004e00900061409800a0
:101b5c004e009000104078008040e8004e0090004d
:101b6c00014878004e009000404090008040e80012
:101b7c004e009000414098004e0090004040900074
:101b8c00e14f500015003600ce0090000040eb00f5
:101b9c00c04098001100370050c1b3002805070061
:101bac004e009000e0409000f0cdb30080c060008b
:101bbc004e009000614098004e009000a0489000ac
:101bcc004e009000400090007296200064030700c5
:101bdc00ce00900010c0b300805098000080fa0036
:101bec00000006000600fa00200798002e00900066
:101bfc0070009000104078000004e00013003a00e0
:101c0c002e009000b04890002e00900040009000f4
:101c1c00610307000004e0003900320050c1b3003a
:101c2c00070507002e009000a04890002e009000a1
:101c3c00400090007296200049030700ae0090000f
:101c4c0010c0b300805098002d0037002e0090007b
:101c5c00900090002e009000404090000080fb000f
:101c6c004300dd00008f40002e009000b048900033
:101c7c002e00900040009000020f20003803070057
:101c8c002e0090007000900053040700204798002d
:101c9c001e007800704090008040e8001e00780024
:101cac00714098001e007800f04090001e007800f3
:101cbc001040780080cf5000110036001e007800d4
:101ccc00404090000080fb00610060000004e000d8
:101cdc000300320060c0b300d904070002003700d3
:101cec0050c1b300d60407009e0078000040eb0002
:101cfc00f0409800ae00900010c0b30080509800e7
:101d0c000080fa00000006000000fa0013e1a900b0
:101d1c008ce0a80084e0a9001221a900d0082200c0
:101d2c007008880013e1a8000000eb005008880040
:101d3c0013e1a90013a1a90012c1a90021112000cf
:101d4c0091407800f0ccb30000c0600012e1b70005
:101d5c000080fa00000006000000fa0043a1a90070
:101d6c0042e1a8002114200091407800f0c9b30092
:101d7c0000c0600042e1b7002114200091407800bf
:101d8c0080cfb30000c060003040b30042e1b70028
:101d9c008c20a8008420a90047a1a90046e1a80036
:101dac006114200091407800f0c9b30000c06000bd
:101dbc0046e1b700611420009140780080cfb30059
:101dcc0000c060003040b30046e1b7008c80a80032
:101ddc008480a9000080fa00000006000400fa00cc
:101dec00004f7800200480004700de006100600096
:101dfc000004e000090032001e04e0000400320080
:101e0c0020048000f1f72f000100600020048800fe
:101e1c001000200010079800020037000000eb00b3
:101e2c00100798001e0090000080fa0000000600c9
:101e3c000400fa00004f78001e04e0000c00320091
:101e4c00300480004800de00610060000004e00007
:101e5c00040032008700a900100020001007980031
:101e6c00060037000000eb00100798000300370055
:101e7c00e01080000000fb00100798001e0090008e
:101e8c000080fa00000006000c00fa00f01f200091
:101e9c00401588000000eb0030168800f01f200071
:101eac00401688000000eb00c01688000000eb0014
:101ebc00d0168800300020009016880052c0b30065
:101ecc008180200000802000930307003604070067
:101edc00e3f1200022002000710420006096200015
:101eec004704070088ff070045ef200044c0b300fb
:101efc00c383200042c0b30041822000e080200058
:101f0c00c601070000802000801f78008f87e80042
:101f1c0000c8b300e0ff9f00678e2000668620009b
:101f2c0015c0b3000042eb0063962000e280200055
:101f3c006185200040842000a1fc0700e487570045
:101f4c0035c0b300240020008041eb004284200007
:101f5c0081972000c096200089010700a08d2800e1
:101f6c000b000900305f7800ce00b1008e037800c2
:101f7c00c6962000850720001400200023c0b30063
:101f8c0012c0b300e1802000808120009502070080
:101f9c0071ff0700c203200031c0b300e0802000b5
:101fac001802070080812000e8020700408420000e
:101fbc00cdfc0700c0962000c8000700f9ff3700d1
:101fcc003600f800809fbe00829fbe00849fbe003a
:101fdc00869fbe003400f80000002000a00188009d
:101fec000200fa008700a900609620001a0407007e
:101ffc00004f78009e407800008020005b030700b3
:10200c000080fa003400f9004f03be004f02be00fe
:10201c004f01be004f00be003600f9000040060024
:10202c003600f800809fbe00829fbe00849fbe00d9
:10203c00869fbe003400f80000002000a00188003c
:10204c000000fa0042c0b30041822000e080200072
:10205c00a60107000080fa003400f9004f03be000f
:10206c004f02be004f01be004f00be003600f9000b
:10207c00004006003600f800809fbe00829fbe0024
:10208c00849fbe00869fbe003400f8000000200034
:10209c00a00188000000fa008420a90021c0b30030
:1020ac00e08020003c0207000004e0001300320036
:1020bc005200200021c0b300e0802000280207005d
:1020cc0074c9bf00e44f500003003e0074c9bf0048
:1020dc000040e80074e9b700614b800074c9bf0090
:1020ec000080fb000088b90000017800e196200018
:1020fc0091407800e0802000c20107000080fa00c7
:10210c003400f9004f03be004f02be004f01be0069
:10211c004f00be003600f900004006003600f80003
:10212c00809fbe00829fbe00849fbe00869fbe0023
:10213c003400f80000002000a00188000000fa0024
:10214c008480a90021c0b300e080200012020700a7
:10215c000004e000130032005200200021c0b30044
:10216c00e0802000fe01070074c9bf00e14f500061
:10217c000300360074c9bf000040e90074e9b700e1
:10218c00614b800074c9bf000080fb000088b9005f
:10219c0000017800e196200091407800e08020005a
:1021ac00980107000080fa003400f9004f03be00cc
:1021bc004f02be004f01be004f00be003600f900ba
:1021cc00004006000c00fa00500798005e009000da
:1021dc0050009000900090005e0090005000900025
:1021ec00504090000080fb004300dd000080400068
:1021fc00400798004e009000900090004e00900018
:10220c00704090000080fb000080400090407800ff
:10221c006147980010002000200798005e00900095
:10222c00e0409000314798000040eb0020479800b8
:10223c00250037006e4090000080fb002e019000be
:10224c00110009000280d800104798000040eb00f4
:10225c00004f78001e409000e94f500008003600f7
:10226c001e4090000080fb00a2002000110009001d
:10227c000280d8008000fd00004f7800020037007b
:10228c001e409000004f78005e009000a00090006f
:10229c002e4090000080fb00808040001e407800a3
:1022ac00804878002e4090000040e80020479800bd
:1022bc003e4090000040e900304798002e0090000e
:1022cc006a00b900200798003e4090000004e0002e
:1022dc00d8ff3a000080fa00000006000400fa0063
:1022ec00100798001e009000500090006040900075
:1022fc000080fb004300de00610060000004e00091
:10230c000f0032001e009000a0009000b0c0b3007f
:10231c00804878001e009000200090008000e800ab
:10232c00b0c0b300804878001e00900020009000e0
:10233c008080e800a0c0b300804878008e00370091
:10234c001e009000a04090001e00900050009000d5
:10235c00400090004a0107000004e00086003200b3
:10236c001e009000a04090001e00900050009000b5
:10237c0040009000500107001e009000500090009b
:10238c00900090001e009000500090005040900073
:10239c000080fb004300dd00008f40001e00900019
:1023ac0050009000604090000080fb004600de0072
:1023bc00610060000004e000400032001e0090004c
:1023cc0080ff07001e007800704090008040e800fd
:1023dc001e007800714098001e007800f0409000bc
:1023ec001e0078001040780080cf50003300390078
:1023fc001e009000704090008040e8001e0090008d
:10240c00714098009e0078000040eb00f04098006e
:10241c001e007800c0409000b0cfb30080c06000b8
:10242c001e007800414098001e009000d0009000e3
:10243c00514090000040e800d04098001e009000f1
:10244c005000900050409000e14f500004003600c6
:10245c001e009000d00090000040eb00d04098008f
:10246c001e00900050009000900090001e00900004
:10247c0050009000504090000080fb004300dd00b5
:10248c00008f40001e007800404090000080fb0050
:10249c004200de00610060000004e0000700320032
:1024ac001e00900047ff07001e007800704090004f
:1024bc008040e8001e007800714098001e007800f3
:1024cc00404090000080fb004200de006100600094
:1024dc000004a2000004e0000f003a001e00780087
:1024ec00d04090001e0090007040900080cf5000b3
:1024fc0009003a001e009000500190001e00900050
:10250c0050009000e040900000c4b30000c0700088
:10251c0060419800180037001e0090005000900099
:10252c00604090000004e0000b003d001e00900095
:10253c00500190001e00900050009000e040900070
:10254c00f0c7b30000c06000604198009e0090008e
:10255c0010c0b300f04098001e0090005001900095
:10256c001e00900050009000e0409000f0cbb300b3
:10257c0000c06000604198000080fa000000060076
:10258c000c00fa00000f7800110798002207980041
:10259c006347980044079800254f98001e00780068
:1025ac00ee409000214098001e007800ce00900074
:1025bc00010878001e0078009e0090002100980011
:1025cc001e007800ae489000614098001e00780014
:1025dc00ae009000510098009e00780010c0b3002f
:1025ec00f04098009e0078000040eb009048980066
:1025fc009e00780020c0b300804898001e00780030
:10260c0050009000400090004e019000ee40900071
:10261c007c0007000080fa00000006001200fa009f
:10262c003007980041079800224f980063079800e4
:10263c00644f9800050f98004e00900020079800fa
:10264c00ae489000014f780007003700ae009000b4
:10265c000040eb00c04098002e0090006600400047
:10266c00200798001e4fe9001e04e000f7ff3a0017
:10267c003e009000ce009000010878003e009000d3
:10268c00ae489000214098006e0090001007980012
:10269c00ee489000014f7800070037009e00900034
:1026ac000000eb00800878001e0090000080e8001d
:1026bc00100798001e4fe9001e04e000f7ff3a00d7
:1026cc003e009000ee009000210098003e0090002b
:1026dc00ee489000614098003e0090008e089000fb
:1026ec00410098000080fa00000006000c00fa007f
:1026fc003007980041079800224f98003e00900048
:10270c00c000900010c0b300010001000004e00004
:10271c003a0032004e00900020079800ae4890001e
:10272c00014f78001d0037002e00900040409000b3
:10273c000080fb00610060000004e0001300320028
:10274c002e009000100078008000e9002e00900010
:10275c00010878002e009000100078000000e000c6
:10276c000a003a002e009000900090002e0090007d
:10277c00010878002e0090004040900080407800c6
:10278c000114a0002e009000414098002e009000f3
:10279c0066004000200798001e4fe9001e04e00070
:1027ac00e1ff3a003e009000a00090001107980055
:1027bc003e009000e0409000014f78000d00370083
:1027cc001e009000100078000000e00005003200b0
:1027dc001e009000100078008000e9001e009000a0
:1027ec00010878001e4fe9001e0090000080e800f0
:1027fc00100798001e04e000f1ff3a000080fa0078
:10280c00000006000800fa001007980041479800e5
:10281c00320798001e009000100178004e40900086
:10282c000080fb006600b900000f41001e0078001c
:10283c0040409000804078000104a0001e00780009
:10284c00414098001e007800c0409000d0cfb300eb
:10285c0080c060001e007800414098001e00780087
:10286c00be009000110098001e00780090009000af
:10287c001e007800010878000080fa0000000600b5
:10288c000400fa00000f7800214798001e00780021
:10289c00100178002e4090000080fb006600b9000b
:1028ac0000004100404090000000fb00620060000e
:1028bc000080fa00000006000400fa00000f780007
:1028cc00214798001e007800100178002e409000df
:1028dc000080fb006600b900800141001e007800fa
:1028ec00100178002e4090000080fb006600b900bb
:1028fc0000004100c0409000d0cfb30000c0600089
:10290c00c04198000080fa00000006000400fa00a4
:10291c00000f7800214798001e0078001001780005
:10292c002e4090000080fb006600b9008001410041
:10293c001e007800100178002e4090000080fb00f3
:10294c006600b90000004100c0409000e0cfb30029
:10295c0000c06000c04198000080fa000000060032
:10296c000600fa00000f7800214798002207980013
:10297c001e007800a00090002e4090000080fb000c
:10298c000000400000804000ae009000010878007c
:10299c000080fa00000006000600fa00000f780024
:1029ac00214798001e007800a00090002e40900057
:1029bc000080fb0000004000008040001000780008
:1029cc008000eb00210798000000e00002003a00b4
:1029dc0010002000200798002e0090000080fa00c4
:1029ec00000006000e00fa00000f78001107980096
:1029fc0042479800534798003407980045079800c1
:102a0c0056079800670798001e0078009e009000fb
:102a1c00110098001e007800ce40900041409800b4
:102a2c001e007800de409000514098001e00780097
:102a3c00be009000410098001e007800ce0090006f
:102a4c00310098001e007800de009000010878002c
:102a5c001e007800ee009000510098003e0190009e
:102a6c00ce4090001e00900066ff07004e019000c3
:102a7c00de4090001e00900062ff07000000eb009b
:102a8c008b0007000080fa00000006000200fa002c
:102a9c00000f78001e007800c04090001e007800e7
:102aac001000900076ff07000004e00025003200c3
:102abc000000eb007e0007001e0078005001900023
:102acc001e00780010007800a00090007dc9bf00a7
:102adc000000fb00008040000000e900104078007e
:102aec000080fb0000004100104078000080fb00db
:102afc00401688007dc9bf000000fb006c00070079
:102b0c001e00780010007800e04090007dc9bf00e6
:102b1c0080cf500003003c0010c0b3007de9b7002b
:102b2c00030037007dc9bf000040e8007de9b70015
:102b3c001e007800c04090001e007800100090002d
:102b4c005dff07000080fa00000006000200fa009a
:102b5c00000f78001e0078001000780050009000e4
:102b6c00604090000080fb004600de0061006000c9
:102b7c000000e0000c003a001e0078001000780005
:102b8c0050009000604090000080fb004200de008e
:102b9c00610060000004e000030032000000eb0064
:102bac0043000700400037001e007800100078003a
:102bbc0050009000604090000080fb004600de005a
:102bcc00610060000004e000080032001e00780084
:102bdc00aeff07001e00780010009000026b23006f
:102bec0031c0b3005eff07000c0037001e007800f8
:102bfc0010007800104890000004e000050032003e
:102c0c001e007800a1ff070010c0b3007ce9b700dc
:102c1c00020037000000eb00250007001e007800c2
:102c2c00d04090001e0078001000780050009000fa
:102c3c004000900012ff07000004e0000e0032007c
:102c4c001e007800900078001e00780010007800bc
:102c5c001048900000c0ea00904898001e007800d0
:102c6c00d04090001e0078001000780050009000ba
:102c7c004000900010ff07001e007800100090002c
:102c8c0031c0b30044ff07000004e000060032002e
:102c9c007cc9bf00e14f500003003a009e00780051
:102cac0030c0b300d04098000080fa00000006004d
:102cbc000400fa00204798002e409000004fe900d5
:102ccc002e4090000004e00003003a007000200049
:102cdc00d01688000e0037001e4078000000fb0064
:102cec00cf80de004cf607000001be000000200083
:102cfc0001002400faf607000001be0000002000cd
:102d0c00010e240089f5070028f60700d01688006c
:102d1c000080fa00000006000600fa00000f7800a0
:102d2c0011079800424798009e0078000040eb0085
:102d3c00804878009e0078000040eb00d04098005e
:102d4c009e0078000040eb00e04098001e007800e8
:102d5c00ce409000414098001e0078009e009000ec
:102d6c00110098000080fa00000006000400fa0030
:102d7c00000f7800214798001e007800900090000a
:102d8c001e007800504090000080fb000080400046
:102d9c00ae409000014878001e0078005040900032
:102dac008040e8001e007800514098001e0078001a
:102dbc0050409000e54f500003003a009e00780010
:102dcc000040eb00d04098001e0078002400070063
:102ddc000080fa00000006000400fa0010079800ba
:102dec001e009000900090001e009000604090002b
:102dfc000080fb0000804000104f78001e00900007
:102e0c00900090001e009000604090000080fb003d
:102e1c00808040000040eb00804878001e0090004d
:102e2c00604090008040e8001e00900061409800d7
:102e3c001e00900060409000e54f500003003a00e7
:102e4c009e0090000040eb00e04098001e009000b7
:102e5c00030007001e80fb000080fa000000060043
:102e6c001200fa00881f7800200798008f00a90034
:102e7c002e009000d04090002e00900060409000fa
:102e8c0080cf5000080039002e009000d0409000f8
:102e9c002e0090006040900080c050002e009000ea
:102eac00014878000c0037002e009000d0409000b4
:102ebc002e0090006040900000c0500080407800d0
:102ecc002e0090004040900000c0400080407800f0
:102edc002e009000014878006000b800008fbe0002
:102eec002e009000104478000800fb00cf80de001c
:102efc00c9f5070070079800010f98000804e0005e
:102f0c0007003d0002002000033824007e009000e2
:102f1c008e08900006f5070070079800010f9800c6
:102f2c0002002000832c24007e0090008e0890006c
:102f3c0037f6070050079800610798002e009000a4
:102f4c00404490000800fb00cf80de00b2f5070083
:102f5c0030079800410798000804e00007003d0086
:102f6c0002002000033824003e009000ce009000a8
:102f7c00eff4070030079800410798003e019000dd
:102f8c00ce0190005e009000ee00900045f5070029
:102f9c00008fbe008f00a8001e00be004f047800fa
:102fac000080fa00000006000000fa0017e2a900f9
:102fbc001942a900f0022000f010880018c2bf00ce
:102fcc00f043b20001c4b3000140700018e2b70036
:102fdc0017e2a8001942a800612120009140780056
:102fec0090cfb30000c0600016e2b7001602a90033
:102ffc008700a9008f00a8000080fa0000000600de
:10300c000800fa00000f780011079800424798005a
:10301c00330798001e0078009e009000010878008d
:10302c001e007800ce409000214098001e007800d1
:10303c00be009000210098000080fa0000000600fd
:10304c000200fa00004f78001e80fb00d0108800b0
:10305c000080fa00000006000200fa00000f780061
:10306c001e007800a00090000040eb000100010061
:10307c000080fb000080fa00000006000200fa004d
:10308c00000f78001e007800a000900010c0b30064
:10309c00010001000080fb000080fa000000060027
:020000040000fa
:1030ac007c0900000200000002000000000100008a
:1030bc00780900000400000002000000000000007d
:1030cc000000000000080000780100000000000073
:1030dc007e0900000200000000000000000000005b
:00000001FF
