:020000040000fa
:080000000001040000000000f3
:020000040000fa
:10020000afaa20000eff20000e01880000000000b1
:100210000c0007004097210001002000110007009a
:10022000000020000000e000020032000000020098
:1002300000000000d80e0200000000000040da00bc
:100240000000fe004440a900c00020000000e000c3
:100250000300320000002000a00188004440a800f4
:100260000000060091018800800078000000eb008b
:1002700015003700e280400032a0b4009101ba00be
:10028000e280400032a0b4009102ba00e280400057
:1002900032a0b4000002eb00472bde00f507b200ed
:1002a000602ce10004003a000059eb008301e900f2
:1002b000fdff3e00040037006128e100010032002c
:1002c0000082eb00040007001101ba000200e00008
:1002d000e8ff3a00000006003159ba008301e90046
:1002e0000c0032002159ba008301e90008003200f5
:1002f0000400e00003003a00e280400032a0b400b5
:10030000f5ff370011d9ba008301e900faff3a007e
:100310008100e800e180400032a0b4000000060047
:1003200000000000000000000000000000000000cd
:1003300000000000000000000000000000000000bd
:100340000040da000000fe00889fbe008a9fbe00c9
:10035000010578000100e0000400350008003c00c1
:100360000000e000200032000500370060001000af
:10037000e080180002003b0001f02c001a0037005a
:100380000004be006011b8006b0920000982cf0094
:10039000020039000882cf000441b00069425200d7
:1003a0000e00320008003b00828171006101640090
:1003b0008904d1000884d3008b05e8000442e800da
:1003c000f9ff3a00050037000804440089844c0016
:1003d0008b05e9000442e900fbff3a00d701070062
:1003e0000af0a70001f0a0004f05be004f04be00b8
:1003f000000006000c00fa00889fbe008a9fbe0025
:100400008c9fbe00f30107000206be008405780041
:100410000200be0002002000f601070005003a00bd
:100420008b02b30012002000f201070001003a0025
:10043000f8856d000c01be00c60007000800be0074
:100440009b0032000b08a3009e003a000df0a700ad
:100450000be0a00009f0a7000bf0a00009f0a1003c
:100460000801be00bb0007000bf0a600950032009b
:1004700001003c000bd0a0008acf7500b200330011
:100480006000b8006250e10099003900a1003e0010
:100490000b28a300a2003a000bf8a30006003200cc
:1004a0000b58a300a70032000801be00a9000700f6
:1004b0000800be00940032000800be00f4010700ee
:1004c0000004be00050578000bf0a7000b30a60065
:1004d0000bf0a1005b079800324f200053f323007c
:1004e000f801070005003d000800be0012002000d2
:1004f000f60107000004be000a05e9004a0798005b
:100500006150b90090ff0700008fbe000c01be00d3
:10051000140107000f020700300798000100e000f7
:1005200002003d0060001000e0801800f2ff27008c
:10053000820f5000e08f580064003e000c00be00a7
:100540000402070020079800f2072000820f5000e5
:10055000e08f580005003c0012f82f00f3ff2f0039
:10056000820f5000838f580009003d000a00e00010
:100570000300320001003c000201ea00020578009d
:100580006000b800200798003a079800190037006b
:100590003e0090006100b9006bff0700809fbe0025
:1005a0000c00be004109dd004811de007208b100f8
:1005b000900107000005be001e01be00e900070013
:1005c0004f01be0089000700809fbe000c00be00e6
:1005d0000a01be00850007001e01be00e100070001
:1005e0004f01be00820007008221270013f3230081
:1005f000dc0007000005be002e0090006100b9007d
:1006000051ff070001f0a2000c01be0078000700b6
:100610000006be000800be00ef0107000c01be008e
:10062000d00007000a01be0071000700809fbe00d5
:100630004a0007002e0590000af0a7000a05ea000c
:10064000050037000800be000801be00c500070015
:100650000004be000c00be000801be000a00a70096
:10066000c00007000006be000a05d100f5ff3a00f1
:100670005e01900002e0a600030037000001be000a
:1006800036000700eb0007000004be004f00be006c
:10069000280207000801be00b20007003e019000da
:1006a0008a010700de0590000bf0a70001f0a20010
:1006b0004f06be004f05be004f04be000080fa008a
:1006c0000000060025000700f9ff3700270007009b
:1006d0006000b8000bd0a7000bc0a0000be0a70083
:1006e0000bc0a2000bc0a70001f82700f0ff3700e5
:1006f0000df8a300020032001e00070019000700d9
:100700000bf8a300eaff32000b30a70001f0a200b3
:10071000e7ff37000df8a300f9ff3a00f7ff3700b5
:100720000801be000b000700e6ff320001003c009c
:100730000df0a2006000b8000df0a700090007004e
:10074000dbff37000b000700f1ff2700f0ff2f0051
:10075000d7ff3700010007005a01370001f82300d6
:100760000000050001f8270000000500200220001d
:1007700001003700100220004055880000000600ec
:100780000001be004d0207000470a70003f0a100a5
:1007900003f8a30013003a006509b100100032000d
:1007a000090035006928e100020035000100280039
:1007b0000000050000004000818048008502e9003b
:1007c000fcff3a0000000600f88f420005003500eb
:1007d0008100d1000080d3008502e800fcff3a00d0
:1007e000000006008000eb000000050003f0a200fe
:1007f000889fbe008a9fbe008c1f7800f50007000e
:10080000430233006450e1004f0032006420e100f5
:100810005200320003826c0007003b000905d00043
:100820000306d000820f54000c065d000200390060
:1008300002003200890178000306780085825500a5
:1008400004003d000003fd008103fd008502ea0075
:100850008b854200840f720002003b006000100094
:10086000e08018006011b8000005eb007a28e10074
:100870000a00390006007800c75ddd00f707b20006
:10088000878075002d003700828171000a01780091
:10089000610560008180d1000080d3008502e900fd
:1008a000f9ff3b00060440008784480002003b003b
:1008b00060041400e0841c000988a30007003200d3
:1008c0008a81710082817100610164008904d10014
:1008d0000884d3008b05e800170037000978a300cf
:1008e00013003a000b00e000130034008b05e90010
:1008f0000804440089844c000a4474000978a30069
:100900000d003a000b00e000070034008b05e90001
:100910000804440089844c0001003a000b002000c8
:100920000978a300f7ff32000001eb000200370056
:10093000828171000a017800800007000cf0a70096
:1009400001f0a000fb0137006420e10002003a0042
:10095000838f6c00fb0133000801be000200be0063
:10096000f4013700889fbe008a9fbe008c1f78006c
:1009700098000700e601330003866c006450e10034
:10098000240032006420e100270032006150e100c1
:10099000220032006120e100210032008b854200fc
:1009a000eb07b1000134b800003ab8000804420077
:1009b00089844a00013ab8000030b80088804000bd
:1009c00009014a0004003300000040008180480013
:1009d000020149008b05e900c909dd0083017000af
:1009e0000100320013002000c814de004814dd00ae
:1009f0004709de001200b200c808de00088470005b
:100a00004e00070001f0a1000cf0a70001f0a000cb
:100a1000c80137006120e100ca0132000801be00b0
:100a20000200be00f7ff37006150e100fcff3a0012
:100a3000c4013700889fbe008a9fbe008c1f7800cb
:100a400064000700b201330003866c006450e100cb
:100a50002e0032006420e100330032006150e100da
:100a60002f0032006120e100310032008585550001
:100a7000eb07b00009002000080420000500370043
:100a80000804440089844c000a0031000603430036
:100a900087834b000001530081815b00f8ff330026
:100aa0000203be000800a0000804440089844c0032
:100ab000f6ff3900c639dd00830173000100320002
:100ac000130020008904d1000884d3000998a300f2
:100ad000050032000800a7000300a0008904d1002f
:100ae0000884d3008b05e8008904d1000884d30072
:100af0000001eb000281d2001000070001f0a1000c
:100b00000cf0a70001f0a0008a0137006420e1008a
:100b10008c0132000801be000200be00f7ff370062
:100b20006120e100870132006000b800f3ff370068
:100b30000000200001f82700f0ff370081002000ae
:100b4000618055000b003d000b00200061fe2f006e
:100b50000100e1001d003400828171006101640028
:100b60008904d1000884d3000000e800faff3a00ad
:100b7000710020006100640003007000020060004a
:100b80000900320061044400e0844c000988a5009b
:100b9000050032008b05e8006808e10002003a0019
:100ba0008904d1000884d300f20f20000258e1002c
:100bb00005003d00c75ddd00f907b20089807500c2
:100bc00008007800000006000bf827008b00780072
:100bd000000005000004be00380107000003be004d
:100be0000405be000200be0034010700844f7500fa
:100bf00000000600889fbe008a9fbe000003be0062
:100c00002e01070085057800828152000200200035
:100c10006220e10004003a00f307b100040035004f
:100c20007718e100040035000600be00140037000c
:100c30006000b8000f003700f50f2000faff2f000a
:100c40008502d1000a85d3008301e900fcff3b0047
:100c50008184620000046500890f7400f2ff320095
:100c60008582ea000a85ea0081846200000465004a
:100c7000b2ff070007f0a70001f0a0000081eb0021
:100c80000200e0004f05be004f04be000000060059
:100c90000003be00090107006220e10002003200eb
:100ca0000600be0005000500e507b100f107b2002f
:100cb00004f023008480700007f0a70001f0a0007a
:100cc0002400050014002000210137000003be00ad
:100cd000fa0007006220e100020032000600be00b8
:100ce0000000060085024100e30f20000328e10018
:100cf00005003c00a3fe2f000328e10007003d0093
:100d00000500200001003700f50f20002002200020
:100d1000405588006000b80008003700130020002c
:100d20008381520005003d008100d1000080d30086
:100d30008301e800fcff3a0005002000c72add001f
:100d4000f107b2008580700007f0a70001f0a00055
:100d5000000006000001be00d80007000470a700d4
:100d600003f0a1006509b100160032000d00350046
:100d70006828e10006003500f0ff2f00f1ff270092
:100d80000300e00013003b00010028000000050004
:100d900000004000818048008502e900fcff3a0025
:100da00008003700f88f420002003c008000eb0092
:100db000000005008100d1000080d3008502e8001a
:100dc000fcff3a000300e00002003b00600010005e
:100dd000e080180000000600889fbe008a9fbe00c9
:100de0008c9fbe00aaff0700850478000005be00a6
:100df0006420e10049003e006220e100030032006f
:100e0000090035000bf8a300440032000bf8a300e2
:100e1000080032001002200040558800f0ff2f002b
:100e2000f1ff27003d00370001f82f0000002000ef
:100e30003a0037003d0007006cfe07000006be00c8
:100e40000a00be00324f200053f32300db000700ee
:100e5000060034000c00be003400070063fe0700eb
:100e60000006be000a00be00020037008904e90047
:100e70000c00be002d000700bafe07002b00070083
:100e80005bfe07000001be000c00be00e9fe07008b
:100e90000005be000001be00b2fe07000006be0055
:100ea000a2f32300430d2c0051fe0700809fbe00db
:100eb0000c00be00d2e32700d3f02b00a9fe0700f0
:100ec0004f01be00dbfe07000006be000a01be00a7
:100ed000a4fe07000a01be0045fe07000006be0092
:100ee0006148b90018fd07000005be00320828005f
:100ef000e3952b009bfe07000c01be003cfe0700a3
:100f00000006be000a00be000200280013f3230002
:100f100094fe07000c01be0035fe07004f06be0020
:100f20004f05be004f04be000000060003f0230082
:100f300002000500889fbe008a9fbe008c9fbe00f5
:100f40000004be005d0007000800be006420e10050
:100f500048003e005500320072212700132b240068
:100f60009600070047003c000800be00c2ec2800c5
:100f7000e32c2c0053ff0700470035000800be009b
:100f800001f0a10002002000033823004dff0700fc
:100f9000430035000800be00b2a32a0083fb2300f3
:100fa00070fe07000200200003f0230001f0a700fc
:100fb00003f0a0000efe070066ff07000005be005c
:100fc000e1fc070001f0a2000006be0002002800bc
:100fd00013f3230063fe07000801be0004fe0700b0
:100fe000809fbe000c00be0032082800e3952b0055
:100ff0005cfe07004f01be00fdfd07000006be00bd
:101000000001be0057fe0700809fbe004241250040
:1010100083b8230053fe07000200200003e82300ea
:10102000f3fd07000c01be004efe07000006be00e7
:101030004f00be00f2f92b00c3d4230049fe070085
:101040000200200003f02300e9fd07000c01be00b0
:10105000e6fd07000001be000c00be0075fe0700a3
:101060000200200003f02300e1fd070061014500bc
:1010700016ff07004f06be004f05be004f04be001e
:101080000000060001f827000000200022022000d6
:1010900042558800f7ff37006000b800fbff3700bb
:1010a00001f8230000002000f2ff370009f8a30038
:1010b000f0ff32006000b800eeff3700c70ade0024
:1010c000f107b200f50fb20008003200e1cf420094
:1010d000020032000170a00024000500810f7000a2
:1010e000010032000408050044000500810f700073
:1010f00002003a00140005008502e90000004000eb
:1011000081c04800fcff3b000170a00024000500e6
:101110000200be006450e100050036006420e100da
:10112000020036000968a30001003a000800be0072
:101130000160a0004f0678004f05be004f04be00be
:1011400000000600f0ff2f00f1ff2700f9ff370035
:10115000889fbe008a9fbe00841f78009dfe070006
:101160004f00780011003300f0ff2f00838f6c00d8
:1011700006003b00040565000a00a70008003700d0
:1011800009f0a6001000200008003700820f54006c
:10119000838f5c00030039001000200001003e0036
:1011a0000000200009f0a7000000ea004f05be0083
:1011b0004f04be000000e00000000600f4ff2f0016
:0411c000e3ff370012
:020000040000fa
:10000800a0010000a0010000a0010000a001000064
:10001800a0010000a0010000a0010000a001000054
:10002800a001000012110000a0010000a0010000c2
:1000380066110000a0010000a0010000e810000007
:10004800a0010000a0010000a0010000a001000024
:10005800a0010000a0010000a0010000a001000014
:10006800a0010000a0010000a0010000a001000004
:10007800a0010000a0010000a0010000a0010000f4
:10008800b8100000a0010000a0010000a0010000bd
:10009800a0010000a0010000a0010000a0010000d4
:1000a800a0010000a0010000a0010000a0010000c4
:1000b800a0010000a0010000a0010000a0010000b4
:1000c800a0010000a0010000a0010000a0010000a4
:1000d800a0010000a0010000a0010000a001000094
:1000e800a0010000a0010000a0010000a001000084
:0800f800a0010000a0010000be
:020000040000fa
:10010800a0010000a0010000a0010000a001000063
:10011800a0010000a0010000a0010000a001000053
:10012800a001000012110000a0010000a0010000c1
:1001380066110000a0010000a0010000e810000006
:10014800a0010000a0010000a0010000a001000023
:10015800a0010000a0010000a0010000a001000013
:10016800a0010000a0010000a0010000a001000003
:10017800a0010000a0010000a0010000a0010000f3
:10018800b8100000a0010000a0010000a0010000bc
:10019800a0010000a0010000a0010000a0010000d3
:1001a800a0010000a0010000a0010000a0010000c3
:1001b800a0010000a0010000a0010000a0010000b3
:1001c800a0010000a0010000a0010000a0010000a3
:1001d800a0010000a0010000a0010000a001000093
:1001e800a0010000a0010000a0010000a001000083
:0801f800a0010000a0010000bd
:020000040000fa
:1011c400c0f90000a4b000009992000082f8000069
:0811d40080900000dfdf000045
:020000040000fa
:1011dc000e00fa00000f7800110798002207980003
:1011ec0033079800044f9800154f98005607980045
:1011fc00670798001e0078009e0090001100980070
:10120c009e00780010c0b300804878009e007800e3
:10121c000040eb00c04098009e0078000040eb00be
:10122c00d04098009e0078000040eb00e040980011
:10123c009e0078000040eb00f04098009e00780083
:10124c000040eb00804898001e007800ae00900033
:10125c00510098001e007800be00900071009800ac
:10126c001e0078008e489000414898001e007800bf
:10127c009e489000514898001e0078001000900085
:10128c00de009000110098001e0078001000900005
:10129c0068004000ee009000110098001e007800dd
:1012ac00900090000040eb00c04098001e007800b9
:1012bc0010009000e80040000040eb00c040980097
:1012cc001e007800900090000ef89700804878007f
:1012dc001e00780010009000e80040000ef8970007
:1012ec00804878001e007800beb89700010898006e
:1012fc000080fa00000006001000fa006007980059
:10130c006e009000604090000080fb007007980019
:10131c007e009000e30f5000be003200fe009000f3
:10132c00e38f50000a003c007e009000e10f50005b
:10133c0031003200fe009000e18f500083003c0031
:10134c007e0090000000e0000e0032005b023700cf
:10135c00fe009000e58f50000e0132007e009000e0
:10136c00e50f5000b1013500fe009000e68f5000f3
:10137c00550132007e009000e70f50009e013200b4
:10138c004e0237006e009000c04890006e00900036
:10139c005000900072962000e40507006e0090004b
:1013ac007000900051c1b30078070700ee00900068
:1013bc0010c0b30080487800ee00900010c0b3005d
:1013cc00e04098006e00900000489000804078004b
:1013dc000144a0006e009000014898006e0090003f
:1013ec0000489000804078000124a0006e0090001e
:1013fc0001489800310237006e0090000008900000
:10140c00104078000004e00025003a006e009000c7
:10141c00c04890006e00900050009000d10507006d
:10142c000004e000320232006e0090007000900068
:10143c0051c1b300550707006e009000c0489000e2
:10144c006e0090005000900072962000b7050700c7
:10145c006e009000004890000080fb004400de000d
:10146c00610060000000e00021023a006e00900074
:10147c00704090008040e8006e0090007140980031
:10148c006e00900070409000ea4f500018023a0035
:10149c00ee00900070c0b300e040980014023700da
:1014ac006e00900000089000fb060700304f98007b
:1014bc006e00900080489000f0ceb30080c06000b9
:1014cc006e009000014898003e489000e14f50009b
:1014dc000d003a006e009000d04890006e00900015
:1014ec0050009000020f200090050700ee009000c5
:1014fc0020c0b300e0409800ee0090000040eb00ec
:10150c00f0409800ed0137003e489000e44f500049
:10151c00f7013a006e0090007000900061c0b300bb
:10152c001a070700ee0090000040eb00e040980026
:10153c006e0090008048900000c8b30080c070001e
:10154c006e00900001489800dc0137006e0090009e
:10155c00900090006e009000404090000080fb00d6
:10156c004300dd0000804000400798006e009000b2
:10157c0000089000104078000004e00015003a00cc
:10158c006e009000d04890006e00900050009000cb
:10159c00740507000004e000d50132006e009000d5
:1015ac007000900051c1b300f80607006e00900067
:1015bc00c04890006e009000500090007296200081
:1015cc005a050700ee00900010c0b300e0409800f0
:1015dc00c70137006e009000d04890006e0090005c
:1015ec0050009000020f2000500507006e00900084
:1015fc0000089000a8060700804078004e0090007c
:10160c0051409800ee00900030c0b300e0409800cc
:10161c00aa0137006e009000900090006e009000c0
:10162c00404090000080fb004300dd000080400043
:10163c00400798006e009000000890001040780061
:10164c000004e00015003a006e009000d0489000b5
:10165c006e00900050009000420507000004e0006e
:10166c00a30132006e0090007000900051c1b300d5
:10167c00c60607006e009000c04890006e009000f7
:10168c00500090007296200028050700ee00900094
:10169c0010c0b300e0409800950137006e00900038
:1016ac00000890007c060700204f98004e00900028
:1016bc00504090000081fb002e4890008080fb0081
:1016cc00f00f200001005000800f51002a003a005a
:1016dc004e009000d04090006e00900010407800ba
:1016ec0080cf500010003a006e009000d04890005f
:1016fc006e00900050009000020f20000b050700b8
:10170c00ee00900060c0b300e0409800ce00900066
:10171c000040eb00f0409800ce0090000040eb0041
:10172c00e0409800650137004e009000d0409000da
:10173c006e0090001040780080cf50000a003100fd
:10174c00ee00900050c0b300e04098004e009000b6
:10175c0040409000804078000104a0004e009000b2
:10176c004140980055013700ee00900070c0b30066
:10177c00e040980051013700ee00900050c0b300db
:10178c00e0409800ce00900020c0b300c04098000c
:10179c004a0137006e00900000089000104078005d
:1017ac000004e00015003a006e009000d048900054
:1017bc006e00900050009000ea0407000004e00066
:1017cc004b0132006e0090007000900051c1b300cc
:1017dc006e0607006e009000c04890006e009000ee
:1017ec005000900072962000d0040700ee0090008c
:1017fc0010c0b300e04098003d0137006e0090002f
:10180c00900090006e009000404090000080fb0023
:10181c004300dd0000804000400798006e009000ff
:10182c00d04890006e00900050009000020f2000f5
:10183c00be0407006e00900000089000160607001a
:10184c00304f98004e009000704090008040e800af
:10185c004e009000714098004e009000f0409000b7
:10186c004e0090001040780080cf500013013600dd
:10187c004e009000404090000080fb006100600032
:10188c000004e000050032006e0090007000900033
:10189c0061c0b3003d060700040037006e009000e5
:1018ac007000900051c1b30038060700ce009000c4
:1018bc000040eb00f0409800ee00900010c0b30028
:1018cc00e0409800fd0037006e009000000890008a
:1018dc00104078000004e00015003a006e00900003
:1018ec00d04890006e009000500090009d040700be
:1018fc000004e000fe0032006e00900070009000ca
:10190c0051c1b300210607006e009000c048900042
:10191c006e00900050009000729620008304070027
:10192c00ee00900010c0b300e0409800f0003700cb
:10193c006e009000d04890006e0090005000900017
:10194c00020f2000790407006e00900090009000b8
:10195c006e009000404090000080fb004300dd00d2
:10196c0000804000400798006e0090000008900036
:10197c00c9050700304f98004e009000e0409000e1
:10198c003e48900080c040004e009000614098009e
:10199c004e009000900090004e009000704090001f
:1019ac000080fb0000804000be4890000148780099
:1019bc004e009000704090008040e8004e00900077
:1019cc00714098004e009000f04090004e00900046
:1019dc001040780080cf5000b8003900ce00900045
:1019ec000040eb00f0409800ee00900040c0b300c7
:1019fc00e0409800b10037006e0090000048900065
:101a0c00804078000134a0006e00900001489800de
:101a1c006e0090008048900000c4b30080c070003d
:101a2c006e00900001489800a40037006e009000f2
:101a3c0000089000104078000004e0001c003a0000
:101a4c006e009000004890000080fb004500de0016
:101a5c00610060000000e00015003a006e0090008c
:101a6c00d04890006e009000500090003d0407009c
:101a7c000004e0009e0032006e009000c048900010
:101a8c006e00900050009000729620002704070012
:101a9c006e0090007000900051c1b300bb050700b0
:101aac00ee00900010c0b300e040980090003700aa
:101abc006e00900000089000104078000004e000d8
:101acc0030003a006e009000004890000080fb004f
:101adc004500de00610060000004e00029003200d7
:101aec000000eb0010079800220037006e009000f9
:101afc00900090001e0090004300dd00008f40001d
:101b0c001e007800404090000080fb004200de0088
:101b1c00610060000000e00013003a006e009000cd
:101b2c00c04890006e00900050009000729620000b
:101b3c00fe0307006e0090007000900061c0b300bf
:101b4c00920507006e00900080489000f0cdb30025
:101b5c0080c060006e00900001489800ee0090007c
:101b6c0010c0b300e04098001e0090000000e80098
:101b7c00100798001e009000e10f5000dbff3400ae
:101b8c005b0037006e009000900090006e0090009b
:101b9c00404090000080fb004300dd0000804000ce
:101bac00300798006e009000000890003a0507007e
:101bbc00404798003e009000e04090004e4090005e
:101bcc0080cf50002a003a003e0090004040900028
:101bdc00804078000124a0003e0090004140980015
:101bec006e0090008048900000c4b30080c070006c
:101bfc006e009000014898006e00900080489000a4
:101c0c0000c2b30080c070006e00900001489800c4
:101c1c006e00900080489000b0cfb30080c0600090
:101c2c006e009000014898006e0090001040780003
:101c3c008040e8006e009000014878006e00900033
:101c4c00404090008040e8006e00900041409800b9
:101c5c006e00900040409000e14f5000170036009d
:101c6c00ee0090000040eb00c040980013003700dd
:101c7c006e009000c04890006e00900050009000e4
:101c8c0072962000a90307006e009000700090006f
:101c9c0051c1b3003d0507006e00900080489000d4
:101cac00f0cdb30080c060006e0090000148980039
:101cbc00ee00900010c0b300e04098008f00a90027
:101ccc0061048000d0f62f00008060006004880062
:101cdc0000812000c00007008f00a8006104800074
:101cec0020092000008070006004880084fd37000b
:101cfc000080fa00000006000400fa00004f780093
:101d0c00200480004700de00610060000004e00059
:101d1c00090032001e04e0000400320020048000a0
:101d2c00f1f72f0001006000200488001000200053
:101d3c0010079800020037000000eb001007980015
:101d4c001e0090000080fa00000006000400fa005b
:101d5c00004f78001e04e0000c00320030048000bc
:101d6c004800de00610060000004e0000400320066
:101d7c008700a9001000200010079800060037000b
:101d8c000000eb001007980003003700e010800003
:101d9c000000fb00100798001e0090000080fa0065
:101dac00000006000c00fa00f01f2000401588000f
:101dbc000000eb0030168800f01f20004016880051
:101dcc000000eb00c01688000000eb00d016880065
:101ddc00300020009016880052c0b3008180200093
:101dec00208020004504070012050700c3ea2000ec
:101dfc0022c0b30031032000e0932000fd04070053
:101e0c002205070025e8200034c0b30063972000aa
:101e1c0042c0b300e19520004093200072020700fd
:101e2c0020802000801f78008f87e80000c8b30056
:101e3c00e0ff9f00e7a12000e699200015c0b30049
:101e4c000042eb00e393200042932000e198200035
:101e5c00c0972000defc0700e487570035c0b300b4
:101e6c00240020008041eb00c297200001aa200032
:101e7c004094200038020700208e28000b00090037
:101e8c00305f7800ce00b1008e03780046942000bd
:101e9c00050f20001400200023c0b30012c0b300b3
:101eac004193200020952000d20307002900070051
:101ebc00008120007040880022982000c181200001
:101ecc004081200086000700a21b2100818a20008f
:101edc008081200082000700c203200031c0b300c3
:101eec0040932000ba020700209520003003070021
:101efc008f00a90061048000d0f62f0000806000e4
:101f0c0060048800408120003300070061048000d9
:101f1c002009200000807000600488008f00a80059
:101f2c008f00a90061048000d0f62f0000806000b3
:101f3c006004880080812000270007006104800075
:101f4c002009200000807000600488008f00a80029
:101f5c00e5ff37000000fa0043a1a90042e1a80008
:101f6c002114200091407800f0c9b30000c060003b
:101f7c0042e1b700211420009140780080cfb300db
:101f8c0000c060003040b30042e1b7008c20a800d4
:101f9c008420a90047a1a90046e1a80061142000f3
:101fac0091407800f0c9b30000c0600046e1b70072
:101fbc00611420009140780080cfb30000c0600015
:101fcc003040b30046e1b7008c80a8008480a900a3
:101fdc000080fa00000006000200fa00000f7800f2
:101fec001e007800004088004200f800801f780036
:101ffc00811f7800821f7800831f7800841f78006f
:10200c00851f7800861f7800871f7800881f78004e
:10201c00891f78008a1f78008b1f78008c1f78002e
:10202c008d1f78003200f8003600f8003800f800f8
:10203c003a00f8003c00f8003e00f8004000f800c0
:10204c004400f80071408000e0008000900098008f
:10205c0071408000f0008000800878000040800013
:10206c00704088007040800010009000e0008800f4
:10207c007040800010007800f00088004400f900e7
:10208c004000f9003e00f9003c00f9003a00f9006c
:10209c003800f9003600f9003200f900cf0678005c
:1020ac004f067800cf0578004f057800cf047800f4
:1020bc004f047800cf0378004f037800cf027800ec
:1020cc004f027800cf0178004f017800cf007800e4
:1020dc004f0078004200f9000080fa000000060072
:1020ec000600fa00000f78001107980022079800ec
:1020fc001e009000ae009000010878001e009000b9
:10210c000080e800100798001e0090000080e80096
:10211c00100798001e0090000080e800100798003f
:10212c001e0078009e009000110098009e00900008
:10213c000000eb00800878001e0090000080e80092
:10214c00100798001e009000c002b0001007980005
:10215c001e0078009e009000010878000080fa00b4
:10216c00000006003600f800809fbe00829fbe0073
:10217c00849fbe00869fbe003400f8000000200043
:10218c00a00188000200fa008700a900e09320005b
:10219c0006040700004f78009e4078002080200045
:1021ac00df0307000080fa003400f9004f03be0083
:1021bc004f02be004f01be004f00be003600f900ba
:1021cc00004006003600f800809fbe00829fbe00d3
:1021dc00849fbe00869fbe003400f80000002000e3
:1021ec00a00188000000fa0042c0b300e195200075
:1021fc0040932000b00107000080fa003400f90081
:10220c004f03be004f02be004f01be004f00be0088
:10221c003600f900004006003600f800809fbe0032
:10222c00829fbe00849fbe00869fbe003400f800d3
:10223c0000002000a00188000000fa008420a90002
:10224c0021c0b30040932000460207000004e000c8
:10225c00130032004201200021c0b3004093200043
:10226c003202070050c9bf00e44f500003003e008b
:10227c0050c9bf000040e80050e9b700614a800037
:10228c0050c9bf000080fb000088b9000001780035
:10229c00a19420009140780040932000cc010700cd
:1022ac000080fa003400f9004f03be004f02be005c
:1022bc004f01be004f00be003600f9000040060082
:1022cc003600f800809fbe00829fbe00849fbe0037
:1022dc00869fbe003400f80000002000a00188009a
:1022ec000000fa008480a90021c0b30040932000b4
:1022fc001c0207000004e000130032004201200021
:10230c0021c0b300409320000802070050c9bf0051
:10231c00e14f50000300360050c9bf000040e900f7
:10232c0050e9b700614a800050c9bf000080fb0033
:10233c000088b90000017800a19420009140780039
:10234c0040932000a20107000080fa003400f9003d
:10235c004f03be004f02be004f01be004f00be0037
:10236c003600f900004006000400fa00100798003f
:10237c001e00900020009000004890000080fb00a0
:10238c004300de00610060000004e0000f0032003a
:10239c001e00900090007800b0c0b3008048780018
:1023ac001e009000100078008000e800b0c0b30060
:1023bc00804878001e009000100078008080e800b3
:1023cc00a0c0b300804878009b0037001e0090002e
:1023dc00e04090001e009000200090005000900003
:1023ec009a0107000004e000860032001e009000f5
:1023fc00e04090001e0090002000900050009000e3
:10240c00a00107001e00900020009000900090009a
:10241c001e00900020009000504090000080fb00b7
:10242c004300dd00008f40001e0090002000900053
:10243c00004890000080fb004600de006100600058
:10244c000004e000400032001e0090007c000700f9
:10245c001e007800704090008040e8001e0078005c
:10246c00714098001e007800f04090001e0078002b
:10247c001040780080cf5000330039001e009000cf
:10248c00304890008040e8001e00900031489800d1
:10249c009e0078000040eb00f04098001e00780091
:1024ac00c0409000b0cfb30080c060001e00780028
:1024bc00414098001e009000a000900051409000f8
:1024cc000040e800d04098001e00900020009000d2
:1024dc0050409000e14f5000040036001e00900068
:1024ec00a00090000040eb00d04098001e0090002f
:1024fc0020009000900090001e00900020009000a2
:10250c00504090000080fb004300dd00008f400035
:10251c001e007800404090000080fb004200de006e
:10252c00610060000004e000070032001e00900013
:10253c00430007001e007800704090008040e800c7
:10254c001e007800714098001e00780040409000fa
:10255c000080fb004200de00610060000004a2006d
:10256c000004e0000f003a001e007800d0409000fc
:10257c001e0090003048900080cf500009003a00b7
:10258c001e009000200190001e0090002000900082
:10259c008048900000c4b30000c07000004998004f
:1025ac00180037001e00900020009000004890009a
:1025bc000004e0000b003d001e0090002001900084
:1025cc001e0090002000900080489000f0c7b300df
:1025dc0000c06000004998009e00900010c0b3003d
:1025ec00b04898001e009000200190001e00900042
:1025fc002000900080489000f0cbb30000c0600039
:10260c00004998008f00a90061048000d0f62f00cb
:10261c000080600060048800008120006efe0700ce
:10262c008f00a80061048000200920000080700049
:10263c00600488004eff37000080fa00000006009e
:10264c000c00fa00500798005e00900020009000eb
:10265c00900090005e009000200090005040900090
:10266c000080fb004300dd00008040004007980024
:10267c004e009000900090004e0090007040900032
:10268c000080fb000080400090407800614798007b
:10269c005e009000a0409000514798000040eb0075
:1026ac0040479800100020001007980025003700c4
:1026bc006e4090000080fb001e019000110009008c
:1026cc000280d800104798000040eb00004f7800c3
:1026dc001e409000e94f5000080036001e4090004c
:1026ec000080fb00a2002000110009000280d8002d
:1026fc008000fd00004f7800020037001e40900063
:10270c00004f78005e009000900078004e409000e2
:10271c000080fb00808040001e40780080487800dc
:10272c004e4090000040e800404798005e4090000a
:10273c000040e900504798001e0090006a00b90064
:10274c00100798005e4090000004e000d8ff3a00ab
:10275c000080fa00000006000c00fa00000f780060
:10276c0011079800220798006347980044079800c7
:10277c00254f98001e007800ee40900061409800b4
:10278c001e007800ce009000410098001e007800da
:10279c009e009000010878001e007800ae48900062
:1027ac00214098001e007800ae0090002100980097
:1027bc009e00780010c0b300b04898009e007800ce
:1027cc000040eb00a04898001e007800200090000c
:1027dc00500090004e019000ee4090007c000700ed
:1027ec000080fa00000006001200fa003007980082
:1027fc0041079800224f980063079800644f980097
:10280c00050f98004e00900020079800ae489000ed
:10281c00014f780007003700ae0090000040eb003d
:10282c00c04098002e0090006600400020079800e1
:10283c001e4fe9001e04e000f7ff3a003e00900036
:10284c00ce009000010878003e009000ae48900049
:10285c00214098006e00900010079800ee48900000
:10286c00014f7800070037009e0090000000eb003d
:10287c00800878001e0090000080e8001007980087
:10288c001e4fe9001e04e000f7ff3a003e009000e6
:10289c00ee009000210098003e009000ee48900061
:1028ac00614098003e0090008e0890004100980016
:1028bc000080fa00000006000c00fa0030079800b7
:1028cc0041079800224f98003e009000c0009000f5
:1028dc0010c0b300010001000004e0003a00320017
:1028ec004e00900020079800ae489000014f7800f1
:1028fc001d0037002e009000404090000080fb002f
:10290c00610060000004e000130032002e00900013
:10291c00100078008000e9002e009000010878007b
:10292c002e009000100078000000e0000a003a0031
:10293c002e009000900090002e009000010878006e
:10294c002e00900040409000804078000114a000c0
:10295c002e009000414098002e0090006600400030
:10296c00200798001e4fe9001e04e000e1ff3a002a
:10297c003e009000a0009000110798003e009000cf
:10298c00e0409000014f78000d0037001e009000d1
:10299c00100078000000e000050032001e009000de
:1029ac00100078008000e9001e00900001087800fb
:1029bc001e4fe9001e0090000080e80010079800f0
:1029cc001e04e000f1ff3a000080fa00000006004f
:1029dc000800fa0010079800414798003207980049
:1029ec001e009000100178004e4090000080fb000b
:1029fc006600b900000f41001e00780040409000b6
:102a0c00804078000104a0001e007800414098002e
:102a1c001e007800c0409000d0cfb30080c0600092
:102a2c001e007800414098001e007800be00900007
:102a3c00110098001e007800900090001e00780095
:102a4c00010878000080fa00000006000400fa007b
:102a5c00000f7800214798001e00780010017800c4
:102a6c002e4090000080fb006600b9000000410081
:102a7c00404090000000fb00620060000080fa0003
:102a8c00000006000400fa00000f780021479800af
:102a9c001e007800100178002e4090000080fb0092
:102aac006600b900800141001e007800100178001a
:102abc002e4090000080fb006600b9000000410031
:102acc00c0409000d0cfb30000c06000c04198005f
:102adc000080fa00000006000400fa00000f7800e5
:102aec00214798001e007800100178002e409000bd
:102afc000080fb006600b900800141001e007800d8
:102b0c00100178002e4090000080fb006600b90098
:102b1c0000004100c0409000e0cfb30000c0600056
:102b2c00c04198000080fa00000006000600fa0080
:102b3c00000f780021479800220798001e007800ab
:102b4c00a00090002e4090000080fb000000400090
:102b5c0000804000ae009000010878000080fa0070
:102b6c00000006000600fa00000f780021479800cc
:102b7c001e007800a00090002e4090000080fb000a
:102b8c000000400000804000100078008000eb0046
:102b9c00210798000000e00002003a00100020001d
:102bac00200798002e0090000080fa00000006001c
:102bbc000200fa00000f78001e0078001000900050
:102bcc0020009000004890000080fb004600de00d2
:102bdc00610060000000e0000d003a001e0078006b
:102bec001000900020009000004890000080fb0036
:102bfc004200de00610060000004e00004003200ce
:102c0c008040eb001e007800a5000700450037004f
:102c1c001e007800100090002000900000489000ea
:102c2c000080fb004600de00610060000004e00054
:102c3c000a0032001e0078003c0007001e007800dd
:102c4c00100090002000900050009000028423009f
:102c5c0021c0b300b5ff07000d0037001e0078003f
:102c6c0010009000204890000004e00005003200a5
:102c7c001e0078002d00070010c0b300a6eab700b4
:102c8c00030037008040eb001e0078008400070032
:102c9c001e007800f04090001e007800100090009c
:102cac00200090005000900068ff07000004e00036
:102cbc000e0032001e007800900090001e0078007c
:102ccc00100090002048900000c0ea00a048980036
:102cdc001e007800f04090001e007800100090005c
:102cec00200090005000900066ff07001e00780046
:102cfc0010009000200090005000900021c0b30004
:102d0c0098ff07000004e00006003200a6cabf00ce
:102d1c00e14f500003003a009e00780030c0b30031
:102d2c00f04098000080fa00000006000200fa0053
:102d3c00000f78001e007800e04090001e00780024
:102d4c002000900041ff07000004e0002700320043
:102d5c008040eb001e007800510007001e00780038
:102d6c00100178001e007800100090009000780090
:102d7c00a7cabf000000fb00008040000000e90073
:102d8c00104078000080fb000000410010407800eb
:102d9c000080fb004016880071aa2000914078004a
:102dac001e0078003e0007001e0078001000900006
:102dbc00a0409000a7cabf0080cf500003003c0089
:102dcc0010c0b300a7eab70003003700a7cabf00c2
:102ddc000040e800a7eab7001e007800e040900031
:102dec001e0078002000900026ff07000080fa00eb
:102dfc00000006000e00fa00000f78001107980082
:102e0c0042479800534798003407980045079800ac
:102e1c0056079800670798001e0078009e009000e7
:102e2c00210098001e007800ce4090006140980070
:102e3c001e007800de409000714098001e00780063
:102e4c00be009000410098001e007800ce0090005b
:102e5c00510098001e007800de00900011009800d0
:102e6c001e007800ee009000010878003e019000f2
:102e7c00ce4090001e009000d5fe07004e01900041
:102e8c00de4090001e009000d1fe07008040eb0059
:102e9c001e007800020007000080fa000000060007
:102eac000600fa0010079800414798004e40900029
:102ebc00004fe9004e4090000004e00003003a008f
:102ecc00800f2000d01688000a0037001e407800c2
:102edc000000fb00cf80de0018f507000001be00eb
:102eec0000002000010024003ff5070021f6070038
:102efc00d01688000080fa00000006000600fa00d8
:102f0c00000f780011079800424798009e00780047
:102f1c000040eb00804878009e0078000040eb00f9
:102f2c00a04098009e0078000040eb00b040980054
:102f3c001e007800ce409000114098001e007800d2
:102f4c009e009000210098000080fa00000006000e
:102f5c001200fa00881f7800200798008f00a90043
:102f6c002e009000a04090002e0090003040900069
:102f7c0080cf5000080039002e009000a040900037
:102f8c002e0090003040900080c050002e00900029
:102f9c00014878000c0037002e009000a0409000f3
:102fac002e0090003040900000c05000804078000f
:102fbc002e0090001040900000c04000804078002f
:102fcc002e009000014878006000b800008fbe0011
:102fdc002e009000104478000800fb00cf80de002b
:102fec00d6f4070070079800010f98000804e00061
:102ffc0007003d0002002000033824007e009000f2
:10300c008e089000f7f5070070079800010f9800e4
:10301c0002002000832c24007e0090008e0890007b
:10302c004df6070050079800610798002e0090009d
:10303c00104490000800fb00cf80de00bff40700b6
:10304c0030079800410798000804e00007003d0095
:10305c0002002000033824003e009000ce009000b7
:10306c00e0f5070030079800410798003e019000fa
:10307c00ce0190005e009000ee0090006af6070012
:10308c00008fbe008f00a8001e00be004f04780009
:10309c000080fa00000006000400fa0010079800f7
:1030ac001e009000a00090001e0090003040900088
:1030bc000080fb0000804000104f78001e00900044
:1030cc00a00090001e009000304090000080fb009b
:1030dc00808040000040eb00804878001e0090008b
:1030ec00304090008040e8001e0090003140980075
:1030fc001e00900030409000e54f500003003a0055
:10310c009e0090000040eb00b04098001e00900024
:10311c008fff07001e80fb000080fa0000000600f5
:10312c000400fa00000f7800214798001e00780078
:10313c00a00090001e007800204090000080fb0052
:10314c0000804000ae409000014878001e007800de
:10315c00204090008040e8001e007800214098003c
:10316c001e00780020409000e54f500003003a000c
:10317c009e0078000040eb00a04098001e007800f4
:10318c0073ff07000080fa00000006000400fa003c
:10319c00000f7800214798002e4090000080fb0023
:1031ac00d01088000080fa00000006000200fa002f
:1031bc00000f78001e007800900078000040eb00b3
:1031cc00010001000080fb000080fa0000000600f6
:1031dc000200fa00000f78001e00780090007800c2
:1031ec0010c0b300010001000080fb000080fa0059
:1031fc00000006000800fa00000f78001107980084
:10320c0042479800330798001e0078009e009000fb
:10321c00110098001e007800ce40900041409800ac
:10322c001e007800be009000010878000080fa00b3
:10323c00000006000000fa0017e2a9001942a900dc
:10324c0030032000f01088006121200091407800ac
:10325c0090cfb30000c0600016e2b7001602a900c0
:10326c008700a9008f00a90018c2bf00f043b2006c
:10327c0001c4b3000140700018e2b70017e2a800c7
:10328c001942a8000080fa00000006000000fa00b5
:10329c0013e1a9008ce0a90084e0a9000000eb0078
:1032ac005008880013e1a90013a1a90012c1a900bc
:1032bc002111200091407800f0ccb30000c06000d8
:1032cc0012e1b7001221a900d00822007008880072
:0c32dc0013e1a8000080fa0000000600ca
:020000040000fa
:1032e8009e0a0000080000000200000044090000d7
:1032f800000000007c090000000800009e02000099
:1033080000000000a60a0000020000000200000001
:1033180000010000a80a00000200000000000000f0
:0433280000000000a1
:00000001FF
