:020000040000fa
:080000000001040000000000f3
:020000040000fa
:10020000ef9620000eff20000e0188000000000085
:100210000c000700005a2100010020001100070017
:10022000000020000000e000020032000000020098
:100230000000000062140200000000000040da002c
:100240000000fe004440a900c00020000000e000c3
:100250000300320000002000a00188004440a800f4
:100260000000060091018800800078000000eb008b
:1002700015003700e280400032a0b4009101ba00be
:10028000e280400032a0b4009102ba00e280400057
:1002900032a0b4000002eb00472bde00f507b200ed
:1002a000602ce10004003a000059eb008301e900f2
:1002b000fdff3e00040037006128e100010032002c
:1002c0000082eb00040007001101ba000200e00008
:1002d000e8ff3a00000006003159ba008301e90046
:1002e0000c0032002159ba008301e90008003200f5
:1002f0000400e00003003a00e280400032a0b400b5
:10030000f5ff370011d9ba008301e900faff3a007e
:100310008100e800e180400032a0b4000000060047
:1003200000000000000000000000000000000000cd
:100330000040da000000fe00889fbe008a9fbe00d9
:10034000010578000100e0000400350008003c00d1
:100350000000e000200032000500370060001000bf
:10036000e080180002003b0001f02c001a0037006a
:100370000004be006011b8006b0920000982cf00a4
:10038000020039000882cf000441b00069425200e7
:100390000e00320008003b008281710061016400a0
:1003a0008904d1000884d3008b05e8000442e800ea
:1003b000f9ff3a00050037000804440089844c0026
:1003c0008b05e9000442e900fbff3a000301070046
:1003d0000af0a70001f0a0004f05be004f04be00c8
:1003e000000006000c00fa00889fbe008a9fbe0035
:1003f0008c9fbe001f0107000206be008405780026
:100400000200be00020020002201070005003a00a1
:100410008b02b300120020001e01070001003a0009
:10042000f8856d000c01be00c60007000800be0084
:100430009b0032000b08a3009e003a000df0a700bd
:100440000be0a00009f0a7000bf0a00009f0a1004c
:100450000801be00bb0007000bf0a60095003200ab
:1004600001003c000bd0a0008acf7500b200330021
:100470006000b8006250e10099003900a1003e0020
:100480000b28a300a2003a000bf8a30006003200dc
:100490000b58a300a70032000801be00a900070006
:1004a0000800be00940032000800be0020010700d2
:1004b0000004be00050578000bf0a7000b30a60075
:1004c0000bf0a1005b079800324f200053f323008c
:1004d0002401070005003d000800be0012002000b6
:1004e000220107000004be000a05e9004a0798003f
:1004f0006150b90090ff0700008fbe000c01be00e4
:100500003c0107006f010700300798000100e00080
:1005100002003d0060001000e0801800f2ff27009c
:10052000820f5000e08f580064003e000c00be00b7
:100530006401070020079800f2072000820f500096
:10054000e08f580005003c0012f82f00f3ff2f0049
:10055000820f5000838f580009003d000a00e00020
:100560000300320001003c000201ea0002057800ad
:100570006000b800200798003a079800190037007b
:100580003e0090006100b9006bff0700809fbe0035
:100590000c00be004109dd004811de007208b10008
:1005a000bc0007000005be001e01be0011010700cf
:1005b0004f01be0064010700809fbe000c00be001a
:1005c0000a01be00600107001e01be00090107000c
:1005d0004f01be005d0107008221270013f32300b5
:1005e000040107000005be002e0090006100b90064
:1005f00051ff070001f0a2000c01be0053010700eb
:100600000006be000800be00ad0107000c01be00e0
:10061000f80007000a01be004c010700809fbe00e1
:100620004a0007002e0590000af0a7000a05ea001c
:10063000050037000800be000801be00ed000700fd
:100640000004be000c00be000801be000a00a700a6
:10065000e80007000006be000a05d100f5ff3a00d9
:100660005e01900002e0a600030037000001be001a
:1006700036000700e90107000004be004f00be007d
:10068000280207000801be00da0007003e019000c2
:10069000b6000700de0590000bf0a70001f0a200f5
:1006a0004f06be004f05be004f04be000080fa009a
:1006b0000000060025000700f9ff370027000700ab
:1006c0006000b8000bd0a7000bc0a0000be0a70093
:1006d0000bc0a2000bc0a70001f82700f0ff3700f5
:1006e0000df8a300020032001e00070019000700e9
:1006f0000bf8a300eaff32000b30a70001f0a200c4
:10070000e7ff37000df8a300f9ff3a00f7ff3700c5
:100710000801be000b000700e6ff320001003c00ac
:100720000df0a2006000b8000df0a700090007005e
:10073000dbff37000b000700f1ff2700f0ff2f0061
:10074000d7ff3700010007008600370001f82300bb
:100750000000050001f8270000000500200220002d
:100760000100370010022000604b880000000600e6
:100770000001be004d0207000470a70003f0a100b5
:1007800003f8a30013003a006509b100100032001d
:10079000090035006928e100020035000100280049
:1007a0000000050000004000818048008502e9004b
:1007b000fcff3a0000000600f88f420005003500fb
:1007c0008100d1000080d3008502e800fcff3a00e0
:1007d000000006008000eb00000005008100200002
:1007e000618055000b003d000b00200061fe2f00d2
:1007f0000100e1001d00340082817100610164008c
:100800008904d1000884d3000000e800faff3a0010
:1008100071002000610064000300700002006000ad
:100820000900320061044400e0844c000988a500fe
:10083000050032008b05e8006808e10002003a007c
:100840008904d1000884d300f20f20000258e1008f
:1008500005003d00c75ddd00f907b2008980750025
:1008600008007800000006000bf827008b007800d5
:10087000000005000004be000c0207000003be00db
:100880000405be000200be0008020700844f750088
:1008900000000600889fbe008a9fbe000003be00c5
:1008a00002020700850578008281520002002000c4
:1008b0006220e10004003a00f307b10004003500b3
:1008c0007718e100040035000600be001400370070
:1008d0006000b8000f003700f50f2000faff2f006e
:1008e0008502d1000a85d3008301e900fcff3b00ab
:1008f0008184620000046500890f7400f2ff3200f9
:100900008582ea000a85ea008184620000046500ad
:10091000b2ff070007f0a70001f0a0000081eb0084
:100920000200e0004f05be004f04be0000000600bc
:100930000003be00dd0107006220e100020032007a
:100940000600be0005000500e507b100f107b20092
:1009500004f023008480700007f0a70001f0a000dd
:100960002400050014002000e50137000003be004c
:10097000ce0107006220e100020032000600be0046
:100980000000060085024100e30f20000328e1007b
:1009900005003c00a3fe2f000328e10007003d00f6
:1009a0000500200001003700f50f20002002200084
:1009b000604b88006000b80008003700130020007a
:1009c0008381520005003d008100d1000080d300ea
:1009d0008301e800fcff3a0005002000c72add0083
:1009e000f107b2008580700007f0a70001f0a000b9
:1009f00000000600889fbe008a9fbe008c1f780002
:100a00009cff0700d901330003866c006450e100ad
:100a1000240032006420e100270032006150e10030
:100a2000220032006120e100210032008b8542006b
:100a3000eb07b1000134b800003ab80008044200e6
:100a400089844a00013ab8000030b800888040002c
:100a500009014a0004003300000040008180480082
:100a6000020149008b05e900c909dd00830170001e
:100a70000100320013002000c814de004814dd001d
:100a80004709de001200b200c808de0008847000ca
:100a900052ff070001f0a1000cf0a70001f0a00038
:100aa000bb0137006120e100bd0132000801be003a
:100ab0000200be00f7ff37006150e100fcff3a0082
:100ac000b70137000001be00780107000470a700dd
:100ad00003f0a1006509b100160032000d003500d9
:100ae0006828e10006003500f0ff2f00f1ff270025
:100af0000300e00013003b00010028000000050097
:100b000000004000818048008502e900fcff3a00b7
:100b100008003700f88f420002003c008000eb0024
:100b2000000005008100d1000080d3008502e800ac
:100b3000fcff3a000300e00002003b0060001000f0
:100b4000e08018000000060003f0a200889fbe00ad
:100b50008a9fbe008c1f780046ff07008301330088
:100b60006450e1004f0032006420e1005200320086
:100b700003826c0007003b000905d0000306d0008b
:100b8000820f54000c065d000200390002003200a2
:100b900089017800030678008582550004003d0035
:100ba0000003fd008103fd008502ea008b85420001
:100bb000840f720002003b0060001000e08018000b
:100bc0006011b8000005eb007a28e1000a00390046
:100bd00006007800c75ddd00f707b200878075006a
:100be0002d003700828171000a01780061056000e4
:100bf0008180d1000080d3008502e900f9ff3b002d
:100c0000060440008784480002003b006004140092
:100c1000e0841c000988a300070032008a8171006b
:100c200082817100610164008904d1000884d300cd
:100c30008b05e800170037000978a30013003a007d
:100c40000b00e000130034008b05e90008044400a9
:100c500089844c000a4474000978a3000d003a000e
:100c60000b00e000070034008b05e9000804440095
:100c700089844c0001003a000b0020000978a30091
:100c8000f7ff32000001eb000200370082817100a3
:100c90000a017800d1fe07000cf0a70001f0a000c7
:100ca0003b0137006420e10002003a00838f6c00b2
:100cb0003b0133000801be000200be0034013700d2
:100cc000889fbe008a9fbe008c9fbe0018ff070051
:100cd000850478000005be006420e10049003e0064
:100ce0006220e10003003200090035000bf8a30088
:100cf000440032000bf8a30008003200100220006c
:100d0000604b8800f0ff2f00f1ff27003d00370007
:100d100001f82f00000020003a0037003d000700d6
:100d200089ff07000006be000a00be00324f200007
:100d300053f323001d010700060034000c00be0021
:100d40003400070080ff07000006be000a00be0056
:100d5000020037008904e9000c00be002d000700e6
:100d600024ff07002b00070078ff07000001be00ea
:100d70000c00be00290007000005be000001be00f7
:100d80001cff07000006be00a2f32300430d2c0049
:100d90006eff0700809fbe000c00be00d2e327005c
:100da000d3f02b0013ff07004f01be001b0007000c
:100db0000006be000a01be000eff07000a01be00c9
:100dc00062ff07000006be006148b9005afd070037
:100dd0000005be0032082800e3952b0005ff070040
:100de0000c01be0059ff07000006be000a00be004d
:100df0000200280013f32300fefe07000c01be00d2
:100e000052ff07004f06be004f05be004f04be0054
:100e10000000060003f0230002000500889fbe00ca
:100e20008a9fbe008c1f780092fe0700cf0033001f
:100e300003866c006450e1002e0032006420e10063
:100e4000330032006150e1002f0032006120e100e8
:100e50003100320085855500eb07b0000900200005
:100e600008042000050037000804440089844c0071
:100e70000a0031000603430087834b000001530042
:100e800081815b00f8ff33000203be000800a00070
:100e90000804440089844c00f6ff3900c639dd009f
:100ea0008301730001003200130020008904d10087
:100eb0000884d3000998a300050032000800a700a9
:100ec0000300a0008904d1000884d3008b05e8004a
:100ed0008904d1000884d3000001eb000281d20014
:100ee0003efe070001f0a1000cf0a70001f0a000f9
:100ef000a70037006420e100a90032000801be000d
:100f00000200be00f7ff37006120e100a4003200bc
:100f10006000b800f3ff37000000200001f8270050
:100f2000f0ff3700889fbe008a9fbe008c9fbe00e6
:100f30000004be005d0007000800be006420e10060
:100f400048003e005500320072212700132b240078
:100f50009600070047003c000800be00c2ec2800d5
:100f6000e32c2c007ffe0700470035000800be0080
:100f700001f0a100020020000338230079fe0700e1
:100f8000430035000800be00b2a32a0083fb230003
:100f900098fe07000200200003f0230001f0a700e4
:100fa00003f0a000e9fe0700c6fe07000005be0032
:100fb000e1fc070001f0a2000006be0002002800cc
:100fc00013f323008bfe07000801be00dffe0700bd
:100fd000809fbe000c00be0032082800e3952b0065
:100fe00084fe07004f01be00d8fe07000006be00c9
:100ff0000001be007ffe0700809fbe004241250029
:1010000083b823007bfe07000200200003e82300d2
:10101000cefe07000c01be0076fe07000006be00f3
:101020004f00be00f2f92b00c3d4230071fe07006d
:101030000200200003f02300c4fe07000c01be00e4
:10104000c1fe07000001be000c00be0073ff0700d8
:101050000200200003f02300bcfe070061014500f0
:1010600042fe07004f06be004f05be004f04be0003
:101070000000060001f827000000200022022000e6
:10108000624b8800f7ff37006000b800fbff3700b5
:1010900001f8230000002000f2ff370009f8a30048
:1010a000f0ff32006000b800eeff3700c70ade0034
:1010b000f107b200f50fb20008003200e1cf4200a4
:1010c000020032000170a00024000500810f7000b2
:1010d000010032000408050044000500810f700083
:1010e00002003a00140005008502e90000004000fb
:1010f00081c04800fcff3b000170a00024000500f7
:10110000889fbe008a9fbe00841f7800d9fd07001b
:101110004f00780011003300f0ff2f00838f6c0028
:1011200006003b00040565000a00a7000800370020
:1011300009f0a6001000200008003700820f5400bc
:10114000838f5c00030039001000200001003e0086
:101150000000200009f0a7000000ea004f05be00d3
:101160004f04be000000e000000006000200be00c8
:101170006450e100050036006420e1000200360002
:101180000968a30001003a000800be000160a00049
:101190004f0678004f05be004f04be000000060059
:1011a000f0ff2f00f1ff2700f9ff3700f4ff2f00b9
:0411b000d3ff370032
:020000040000fa
:100008009801000098010000980100009801000084
:100018009801000098010000980100009801000074
:100028009801000098010000980100009801000064
:100038009801000098010000980100009801000054
:100048009801000098010000980100009801000044
:100058009801000098010000980100009801000034
:100068009801000098010000980100009801000024
:100078009801000098010000980100009801000014
:100088009801000098010000980100009801000004
:1000980098010000980100009801000098010000f4
:1000a80098010000980100009801000098010000e4
:1000b80098010000980100009801000098010000d4
:1000c80098010000980100009801000098010000c4
:1000d80098010000980100009801000098010000b4
:1000e80098010000980100009801000098010000a4
:0800f8009801000098010000ce
:020000040000fa
:100108009801000098010000980100009801000083
:100118009801000098010000980100009801000073
:100128009801000098010000980100009801000063
:100138009801000098010000980100009801000053
:100148009801000098010000980100009801000043
:100158009801000098010000980100009801000033
:100168009801000098010000980100009801000023
:100178009801000098010000980100009801000013
:100188009801000098010000980100009801000003
:1001980098010000980100009801000098010000f3
:1001a80098010000980100009801000098010000e3
:1001b80098010000980100009801000098010000d3
:1001c80098010000980100009801000098010000c3
:1001d80098010000980100009801000098010000b3
:1001e80098010000980100009801000098010000a3
:0801f8009801000098010000cd
:020000040000fa
:1011b400c0f90000a4b000009992000082f8000079
:0811c40080900000dfdf000055
:020000040000fa
:1011cc000e00fa00000f7800110798002207980013
:1011dc0033079800044f9800154f98005607980055
:1011ec00670798001e0078009e0090001100980080
:1011fc009e00780010c0b300804878009e007800f4
:10120c000040eb00c04098009e0078000040eb00ce
:10121c00d04098009e0078000040eb00e040980021
:10122c009e0078000040eb00f04098009e00780093
:10123c000040eb00804898001e007800ae00900043
:10124c00510098001e007800be00900071009800bc
:10125c001e0078008e489000414898001e007800cf
:10126c009e489000514898001e0078001000900095
:10127c00de009000110098001e0078001000900015
:10128c0068004000ee009000110098001e007800ed
:10129c00900090000040eb00c04098001e007800c9
:1012ac0010009000e80040000040eb00c0409800a7
:1012bc001e007800900090000ef89700804878008f
:1012cc001e00780010009000e80040000ef8970017
:1012dc00804878000080fa00000006001200fa0036
:1012ec00700798007e009000604090000080fb002a
:1012fc00000f98000e089000e30f5000be00320063
:10130c000e089000e30f50000a003c000e089000fd
:10131c00e10f5000310032000e089000e10f500038
:10132c0083003c000e0890000000e0000e0032002c
:10133c005c0237000e089000e50f50000e013200e1
:10134c000e089000e50f5000b30135000e08900018
:10135c00e60f5000550132000e089000e70f5000c8
:10136c00a00132004f0237007e009000c048900070
:10137c007e00900050009000729620002f04070011
:10138c007e0090007000900051c1b30097050700db
:10139c00fe00900010c0b30080487800fe00900062
:1013ac0010c0b300e04098007e0090000048900010
:1013bc00804078000144a0007e0090000148980015
:1013cc007e00900000489000804078000124a0002e
:1013dc007e00900001489800320237007e00900099
:1013ec0070009000920507000004e00025003a0010
:1013fc007e009000c04890007e009000500090004d
:10140c001c0407000004e000260232007e0090005d
:10141c007000900051c1b300740507007e0090006d
:10142c00c04890007e009000500090007296200002
:10143c00020407007e009000004890000080fb0032
:10144c004400de00610060000000e00015023a007c
:10145c007e009000704090008040e8007e0090007c
:10146c00714098007e00900070409000ea4f500050
:10147c000c023a00fe00900070c0b300e0409800ef
:10148c00080237007e009000700090005f05070096
:10149c00504f98007e00900080489000f0ceb30032
:1014ac0080c060007e009000014898005e4890006b
:1014bc00e14f50000d003a007e009000d0489000a3
:1014cc007e00900050009000020f2000db0307000c
:1014dc00fe00900020c0b300e0409800fe00900099
:1014ec000040eb00f0409800ee0137005e489000a1
:1014fc00e44f5000eb013a007e0090007000900029
:10150c0061c0b30039050700fe0090000040eb00fd
:10151c00e04098007e0090008048900000c8b30026
:10152c0080c070007e00900001489800dd013700fb
:10153c007e009000900090007e0090004040900053
:10154c000080fb004300dd00008040005007980045
:10155c007e00900070009000350507000004e0004c
:10156c0015003a007e009000d04890007e0090005c
:10157c0050009000bf0307000004e000c9013200d6
:10158c007e0090007000900051c1b3001705070059
:10159c007e009000c04890007e00900050009000ab
:1015ac0072962000a5030700fe00900010c0b30047
:1015bc00e0409800bb0137007e009000d0489000be
:1015cc007e00900050009000020f20009b0307004b
:1015dc007e009000700090000c05070080407800a1
:1015ec005e00900051409800fe00900030c0b300a7
:1015fc00e0409800ab0137007e0090009000900016
:10160c007e009000404090000080fb004300dd0015
:10161c0000804000500798007e0090007000900001
:10162c00030507000004e00015003a007e0090005e
:10163c00d04890007e009000500090008d03070071
:10164c000004e000970132007e00900070009000d2
:10165c0051c1b300e50407007e009000c048900023
:10166c007e009000500090007296200073030700db
:10167c00fe00900010c0b300e040980089013700d4
:10168c007e00900070009000e0040700404f98002e
:10169c005e009000504090000081fb004e4890008e
:1016ac008080fb00f00f200001005000800f5100e3
:1016bc002a003a005e009000d04090007e0090001e
:1016cc001040780080cf500010003a007e0090004f
:1016dc00d04890007e00900050009000020f200037
:1016ec0056030700fe00900060c0b300e040980075
:1016fc00de0090000040eb00f0409800de0090000f
:10170c000040eb00e0409800660137005e0090005e
:10171c00d04090007e0090001040780080cf5000a8
:10172c000a003100fe00900050c0b300e040980069
:10173c005e00900040409000804078000104a000c2
:10174c005e0090004140980056013700fe0090006a
:10175c0070c0b300e040980052013700fe009000ca
:10176c0050c0b300e0409800de00900020c0b300f1
:10177c00c04098004b0137007e0090007000900034
:10178c00ab0407000004e00015003a007e00900056
:10179c00d04890007e009000500090003503070068
:1017ac000004e0003f0132007e00900070009000c9
:1017bc0051c1b3008d0407007e009000c04890001a
:1017cc007e00900050009000729620001b030700d2
:1017dc00fe00900010c0b300e040980031013700cb
:1017ec007e009000900090007e00900040409000a1
:1017fc000080fb004300dd000080400030079800b3
:10180c007e009000d04890007e0090005000900028
:10181c00020f2000090307007e009000700090006a
:10182c007a040700004f98003e0090007040900032
:10183c008040e8003e009000714098003e0090000f
:10184c00f04090003e0090001040780080cf500097
:10185c00140136003e009000404090000080fb00d8
:10186c00610060000004e000050032007e00900082
:10187c007000900061c0b3005c04070004003700e6
:10188c007e0090007000900051c1b3005704070017
:10189c00be0090000040eb00f0409800fe0090006d
:1018ac0010c0b300e0409800fe0037007e009000ae
:1018bc00700090005e0407000004e00015003a0080
:1018cc007e009000d04890007e0090005000900068
:1018dc00e80207000004e000f20032007e009000f5
:1018ec007000900051c1b300400407007e009000ce
:1018fc00c04890007e00900050009000729620002e
:10190c00ce020700fe00900010c0b300e04098002b
:10191c00e40037007e009000d04890007e009000dc
:10192c0050009000020f2000c40207007e009000bf
:10193c00900090007e009000404090000080fb00e2
:10194c004300dd0000804000300798007e009000ce
:10195c00700090002d040700004f98003e0090008e
:10196c0060409000804078000e48900000c040001d
:10197c00804078003e009000614098003e0090004e
:10198c00900090003e009000704090000080fb00a2
:10199c00808040000e489000804878003e00900007
:1019ac00704090008040e8003e009000714098002c
:1019bc003e009000f04090003e00900010407800f7
:1019cc0080cf5000b7003900be0090000040eb0003
:1019dc00f0409800fe00900040c0b300e04098003a
:1019ec00b00037007e0090000048900080407800e6
:1019fc000134a0007e009000014898007e00900009
:101a0c008048900000c4b30080c070007e0090003d
:101a1c0001489800a30037007e00900070009000f1
:101a2c00030407000004e0001c003a007e00900054
:101a3c00004890000080fb004500de006100600063
:101a4c000000e00015003a007e009000d0489000a5
:101a5c007e00900050009000860207000004e00019
:101a6c00900032007e009000c04890007e009000f4
:101a7c005000900072962000700207007e009000cb
:101a8c007000900051c1b300d8030700fe00900015
:101a9c0010c0b300e0409800820037007e00900038
:101aac0070009000e20307000004e00030003a00f0
:101abc007e009000004890000080fb004500de0096
:101acc00610060000004e000290032000000eb001f
:101adc0010079800220037007e00900090009000c4
:101aec001e0090004300dd00008f40001e007800b7
:101afc00404090000080fb004200de00610060006e
:101b0c000000e00013003a007e009000c0489000f6
:101b1c007e00900050009000729620004702070053
:101b2c007e0090007000900061c0b300af0307000e
:101b3c007e00900080489000f0cdb30080c0600023
:101b4c007e00900001489800fe00900010c0b30089
:101b5c00e04098001e0090000000e800100798007c
:101b6c001e009000e10f5000dbff34004d003700e9
:101b7c007e009000900090007e009000404090000d
:101b8c000080fb004300dd0000804000200798002f
:101b9c007e009000700090009c030700804078004d
:101bac002e0090006040900080cf50002a003a0038
:101bbc002e00900040409000804078000124a0004e
:101bcc002e009000414098007e00900080489000cc
:101bdc0000c4b30080c070007e00900001489800e3
:101bec007e0090008048900000c2b30080c070005e
:101bfc007e009000014898007e0090008048900084
:101c0c00b0cfb30080c060007e0090000148980007
:101c1c007e009000104078008040e8007e0090002c
:101c2c00014878007e009000404090008040e80021
:101c3c007e009000414098007e0090004040900053
:101c4c00e14f500017003600fe0090000040eb0002
:101c5c00c0409800130037007e009000c0489000f0
:101c6c007e0090005000900072962000f301070057
:101c7c007e0090007000900051c1b3005b03070020
:101c8c007e00900080489000f0cdb30080c06000d2
:101c9c007e00900001489800fe00900010c0b30038
:101cac00e04098000080fa00000006000400fa00f2
:101cbc00100798001e009000200090000048900033
:101ccc000080fb004300de00610060000004e000c7
:101cdc000f0032001e00900090007800b0c0b300de
:101cec00804878001e009000100078008000e8000a
:101cfc00b0c0b300804878001e009000100078003f
:101d0c008080e800a0c0b300804878008e003700c7
:101d1c001e009000e04090001e00900020009000fb
:101d2c00500090008d0107000004e0008600320096
:101d3c001e009000e04090001e00900020009000db
:101d4c0050009000930107001e00900020009000ae
:101d5c00900090001e0090002000900050409000d9
:101d6c000080fb004300dd00008f40001e0090004f
:101d7c0020009000004890000080fb004600de0030
:101d8c00610060000004e000400032001e00900082
:101d9c006f0007001e007800704090008040e80043
:101dac001e007800714098001e007800f0409000f2
:101dbc001e0078001040780080cf500033003900ae
:101dcc001e009000304890008040e8001e009000fb
:101ddc00314898009e0078000040eb00f0409800dd
:101dec001e007800c0409000b0cfb30080c06000ef
:101dfc001e007800414098001e009000a00090004a
:101e0c00514090000040e800d04098001e00900027
:101e1c002000900050409000e14f5000040036002c
:101e2c001e009000a00090000040eb00d0409800f5
:101e3c001e00900020009000900090001e0090006a
:101e4c0020009000504090000080fb004300dd001b
:101e5c00008f40001e007800404090000080fb0086
:101e6c004200de00610060000004e0000700320068
:101e7c001e009000360007001e0078007040900095
:101e8c008040e8001e007800714098001e00780029
:101e9c00404090000080fb004200de0061006000ca
:101eac000004a2000004e0000f003a001e007800bd
:101ebc00d04090001e0090003048900080cf500021
:101ecc0009003a001e009000200190001e009000b6
:101edc00200090008048900000c4b30000c0700047
:101eec0000499800180037001e0090002000900058
:101efc00004890000004e0000b003d001e00900024
:101f0c00200190001e00900020009000804890005e
:101f1c00f0c7b30000c06000004998009e0090001c
:101f2c0010c0b300b04898001e0090002001900033
:101f3c001e0090002000900080489000f0cbb30071
:101f4c0000c06000004998000080fa000000060004
:101f5c000c00fa00500798005e00900020009000e2
:101f6c00900090005e009000200090005040900087
:101f7c000080fb004300dd0000804000400798001b
:101f8c004e009000900090004e0090007040900029
:101f9c000080fb0000804000904078006147980072
:101fac005e009000a0409000514798000040eb006c
:101fbc0040479800100020001007980025003700bb
:101fcc006e4090000080fb001e0190001100090083
:101fdc000280d800104798000040eb00004f7800ba
:101fec001e409000e94f5000080036001e40900043
:101ffc000080fb00a2002000110009000280d80024
:10200c008000fd00004f7800020037001e40900059
:10201c00004f78005e009000900078004e409000d9
:10202c000080fb00808040001e40780080487800d3
:10203c004e4090000040e800404798005e40900001
:10204c000040e900504798001e0090006a00b9005b
:10205c00100798005e4090000004e000d8ff3a00a2
:10206c000080fa00000006000c00fa00000f780057
:10207c0011079800220798006347980044079800be
:10208c00254f98001e007800ee40900061409800ab
:10209c001e007800ce009000410098001e007800d1
:1020ac009e009000010878001e007800ae48900059
:1020bc00214098001e007800ae009000210098008e
:1020cc009e00780010c0b300b04898009e007800c5
:1020dc000040eb00a04898001e0078002000900003
:1020ec00500090004e019000ee4090007c000700e4
:1020fc000080fa00000006001200fa003007980079
:10210c0041079800224f980063079800644f98008d
:10211c00050f98004e00900020079800ae489000e4
:10212c00014f780007003700ae0090000040eb0034
:10213c00c04098002e0090006600400020079800d8
:10214c001e4fe9001e04e000f7ff3a003e0090002d
:10215c00ce009000010878003e009000ae48900040
:10216c00214098006e00900010079800ee489000f7
:10217c00014f7800070037009e0090000000eb0034
:10218c00800878001e0090000080e800100798007e
:10219c001e4fe9001e04e000f7ff3a003e009000dd
:1021ac00ee009000210098003e009000ee48900058
:1021bc00614098003e0090008e089000410098000d
:1021cc000080fa00000006000c00fa0030079800ae
:1021dc0041079800224f98003e009000c0009000ec
:1021ec0010c0b300010001000004e0003a0032000e
:1021fc004e00900020079800ae489000014f7800e8
:10220c001d0037002e009000404090000080fb0025
:10221c00610060000004e000130032002e0090000a
:10222c00100078008000e9002e0090000108780072
:10223c002e009000100078000000e0000a003a0028
:10224c002e009000900090002e0090000108780065
:10225c002e00900040409000804078000114a000b7
:10226c002e009000414098002e0090006600400027
:10227c00200798001e4fe9001e04e000e1ff3a0021
:10228c003e009000a0009000110798003e009000c6
:10229c00e0409000014f78000d0037001e009000c8
:1022ac00100078000000e000050032001e009000d5
:1022bc00100078008000e9001e00900001087800f2
:1022cc001e4fe9001e0090000080e80010079800e7
:1022dc001e04e000f1ff3a000080fa000000060046
:1022ec000800fa0010079800414798003207980040
:1022fc001e009000100178004e4090000080fb0002
:10230c006600b900000f41001e00780040409000ac
:10231c00804078000104a0001e0078004140980025
:10232c001e007800c0409000d0cfb30080c0600089
:10233c001e007800414098001e007800be009000fe
:10234c00110098001e007800900090001e0078008c
:10235c00010878000080fa00000006000400fa0072
:10236c00000f7800214798001e00780010017800bb
:10237c002e4090000080fb006600b9000000410078
:10238c00404090000000fb00620060000080fa00fa
:10239c00000006000400fa00000f780021479800a6
:1023ac001e007800100178002e4090000080fb0089
:1023bc006600b900800141001e0078001001780011
:1023cc002e4090000080fb006600b9000000410028
:1023dc00c0409000d0cfb30000c06000c041980056
:1023ec000080fa00000006000400fa00000f7800dc
:1023fc00214798001e007800100178002e409000b4
:10240c000080fb006600b900800141001e007800ce
:10241c00100178002e4090000080fb006600b9008f
:10242c0000004100c0409000e0cfb30000c060004d
:10243c00c04198000080fa00000006000600fa0077
:10244c00000f780021479800220798001e007800a2
:10245c00a00090002e4090000080fb000000400087
:10246c0000804000ae009000010878000080fa0067
:10247c00000006000600fa00000f780021479800c3
:10248c001e007800a00090002e4090000080fb0001
:10249c000000400000804000100078008000eb003d
:1024ac00210798000000e00002003a001000200014
:1024bc00200798002e0090000080fa000000060013
:1024cc000200fa00000f78001e0078001000900047
:1024dc0020009000004890000080fb004600de00c9
:1024ec00610060000000e0000d003a001e00780062
:1024fc001000900020009000004890000080fb002d
:10250c004200de00610060000004e00004003200c4
:10251c008040eb001e007800a50007004500370046
:10252c001e007800100090002000900000489000e1
:10253c000080fb004600de00610060000004e0004b
:10254c000a0032001e0078003c0007001e007800d4
:10255c001000900020009000500090000284230096
:10256c0021c0b300b5ff07000d0037001e00780036
:10257c0010009000204890000004e000050032009c
:10258c001e0078002d00070010c0b3006ae9b700e8
:10259c00030037008040eb001e0078008400070029
:1025ac001e007800f04090001e0078001000900093
:1025bc00200090005000900068ff07000004e0002d
:1025cc000e0032001e007800900090001e00780073
:1025dc00100090002048900000c0ea00a04898002d
:1025ec001e007800f04090001e0078001000900053
:1025fc00200090005000900066ff07001e0078003d
:10260c0010009000200090005000900021c0b300fa
:10261c0098ff07000004e000060032006ac9bf0002
:10262c00e14f500003003a009e00780030c0b30028
:10263c00f04098000080fa00000006000200fa004a
:10264c00000f78001e007800e04090001e0078001b
:10265c002000900041ff07000004e000270032003a
:10266c008040eb001e007800510007001e0078002f
:10267c00100178001e007800100090009000780087
:10268c006bc9bf000000fb00008040000000e900a7
:10269c00104078000080fb000000410010407800e2
:1026ac000080fb0040168800b19620009140780015
:1026bc001e0078003e0007001e00780010009000fd
:1026cc00a04090006bc9bf0080cf500003003c00bd
:1026dc0010c0b3006be9b700030037006bc9bf0033
:1026ec000040e8006be9b7001e007800e040900065
:1026fc001e0078002000900026ff07000080fa00e2
:10270c00000006000e00fa00000f78001107980078
:10271c0042479800534798003407980045079800a3
:10272c0056079800670798001e0078009e009000de
:10273c00210098001e007800ce4090006140980067
:10274c001e007800de409000714098001e0078005a
:10275c00be009000410098001e007800ce00900052
:10276c00510098001e007800de00900011009800c7
:10277c001e007800ee009000010878003e019000e9
:10278c00ce4090001e009000d5fe07004e01900038
:10279c00de4090001e009000d1fe07008040eb0050
:1027ac001e007800020007000080fa0000000600fe
:1027bc000600fa0010079800414798004e40900020
:1027cc00004fe9004e4090000004e00003003a0086
:1027dc00800f2000d01688000a0037001e407800b9
:1027ec000000fb00cf80de00d0f607000001be0029
:1027fc000000200001002400f7f60700d9f70700bd
:10280c00d01688000080fa00000006000400fa00d0
:10281c00004f7800200480004700de00610060005b
:10282c000004e000090032001e04e0000400320045
:10283c0020048000f1f72f000100600020048800c4
:10284c001000200010079800020037000000eb0079
:10285c00100798001e0090000080fa00000006008f
:10286c000400fa00004f78001e04e0000c00320057
:10287c00300480004800de00610060000004e000cd
:10288c00040032008700a9001000200010079800f7
:10289c00060037000000eb0010079800030037001b
:1028ac00e01080000000fb00100798001e00900054
:1028bc000080fa00000006000c00fa00f01f200057
:1028cc00401588000000eb0030168800f01f200037
:1028dc00401688000000eb00c01688000000eb00da
:1028ec00d01688006b0007006343210022c0b300a0
:1028fc0031032000a080200056000700790007005b
:10290c00c540210034c0b3000384200042c0b30092
:10291c008182200000802000f7fd07008f87e800ef
:10292c0000c8b300e0ff9f00678e20006686200081
:10293c0015c0b3000042eb00a380200002802000f1
:10294c0061852000608420001dfa07008f87e90054
:10295c0035c0b300240020008041eb0062842000cd
:10296c006196200000812000bffd0700a08d28008b
:10297c000b000900305f7800ce00b1008e037800a8
:10298c0006812000050f20001400200023c0b30096
:10299c0012c0b30001802000c081200059ff070045
:1029ac00c203200031c0b300008020004cfe0700a1
:1029bc000040eb0095ff07000004e000040032002b
:1029cc0042c0b3008182200000802000fefd070081
:1029dc00c0812000bafe0700608420003ffa070087
:1029ec0000812000b1fc0700f1ff37000400fa0061
:1029fc00000f7800214798002e4090000080fb00cb
:102a0c00d01088000080fa00000006000200fa00d6
:102a1c00000f78001e007800900078000040eb005a
:102a2c00010001000080fb000080fa00000006009d
:102a3c000200fa00000f78001e0078009000780069
:102a4c0010c0b300010001000080fb000080fa0000
:102a5c00000006000800fa00000f7800110798002b
:102a6c0042479800330798001e0078009e009000a3
:102a7c00110098001e007800ce4090004140980054
:102a8c001e007800be009000010878000080fa005b
:102a9c00000006000000fa0017e2a9001942a90084
:102aac0030032000f0108800612120009140780054
:102abc0090cfb30000c0600016e2b7001602a90068
:102acc0018c2bf00f043b20001c4b3000140700053
:102adc0018e2b70017e2a8001942a8000080fa001b
:102aec00000006000000fa0013e1a9008ce0a90028
:102afc0084e0a9000000eb005008880013e1a90055
:102b0c0013a1a90012c1a900211120009140780045
:102b1c00f0ccb30000c0600012e1b7001221a90094
:102b2c00d00822007008880013e1a8000080fa0089
:042b3c00000006008f
:020000040000fa
:102b40006609000004000000020000000000000010
:102b50000000000000080000660100000000000006
:102b60006a090000020000000200000000010000ed
:102b70006c090000020000000000000000000000de
:00000001FF
